:100EBB0020203A20203A20200074656D703A252EB0
:100ECB003166002020636F6C6421002020686F74F2
:100EDB002100202020202020202020202020202026
:0C0EEB00202000204E6F726D616C210011
:0B11B200013D00023600000232000088
:10103E001212021211DC1211851212417FE87E0388
:10104E001211C7120BAC7BFF7A0E79BB7D017F02AA
:0E105E001210BF120FA2120AB6120FD880F5A0
:0F12020012122012106C8F3C8E3B8D3A8C3922C9
:100FD800D3E50B6480948750047F0180027F00C3AF
:100FE800E50B6480949640047E0180027E00EE4FFB
:100FF800600BC297C2A075320075330122E4F53246
:03100800F533229B
:100AB600121202754BFF754C0E754DC4853C51855F
:100AC6003B50853A4F85394E7B007A00793E1206B7
:100AD600A37B007A00793EE4FD7F011210BFE4FF9C
:100AE600FE7D487C42AB3CAA3BA93AA8391200A33A
:100AF600600840067F01C00780047F00C007E4FF4E
:100B0600FE7D207C42AB3CAA3BA93AA8391200A341
:100B160050047E0180027E00D0E04E605EE53345E3
:100B2600327002D2A0E4FFFE7D207C42AB3CAA3BA1
:100B3600A93AA8391200A350167BFF7A0E79CE7D0A
:100B4600097F011210BFD29775360075370122E46E
:100B5600FFFE7D487C42AB3CAA3BA93AA83912006D
:100B6600A3604240407BFF7A0E79D67D097F011251
:100B760010BF753600753701C29722E53764014507
:100B8600367011F536F5377BFF7A0E79DD7D097FF4
:100B9600011210BF7BFF7A0E79EE7D097F011210DC
:060BA600BFC2A0C29722AD
:100FA200120C96E50BFB3395E0FA754C027D017F3E
:100FB2000212111DE50CFB3395E0FA754C027D041B
:100FC2007F0212111DE50DFB3395E0FA754C027D8F
:060FD200077F0202111D61
:0D12200012113A7FCC1211547F4402115478
:10106C0012113A7FCC1211547FBE1211541211007E
:10107C008F48121100EFFEE548FFFDAC06EC1201A3
:0B108C0021E4FBFA7980784112000695
:011097002236
:1011C700EF1FAC0670011E4C600A7D027CEFDCFE4F
:0411D700DDFC80ECCF
:0111DB0022F1
:10113A00D2A1C2A17FF7DFFED2A17F20DFFEA2A14A
:09114A00E433FE7FF7DFFEAF067F
:011153002279
:1011F000C2A17E04DEFEEF24FF92A17E18DEFED2A5
:01120000A14C
:0112010022CA
:10116D00C2A17F02DFFED2A17F02DFFEA2A1E43386
:07117D00FE7F18DFFEAF0644
:011184002248
:02115400AD07E5
:10115600E4FC7401A804088002C333D8FC5DFF12C6
:0611660011F00CBC08ECC6
:01116C002260
:10110000E4FDFC12116DEF600D7401A8040880026B
:0C111000C333D8FC42050CBC08E9AF0555
:01111C0022B0
:0911BD000708130B100C3B00069F
:05124100C2A5C2A622B7
:060E100025F0FDEC3EFCA4
:060E16008C488D49AB077A
:100E1C00D2A5E4FD74017E00A805088005C333CE7D
:100E2C0033CED8F9FFEBF582EF558224FF92A7D28F
:100E3C00A6C2A60DBD08DDE4FD74017E00A8050860
:100E4C008005C333CE33CED8F9FFE5485EFEE549C5
:100E5C005F4E24FF92A7D2A6C2A60DBD08DBC2A589
:010E6C002263
:020E6D00AD07CF
:100E6F00E4F9430501D2A5FB74017E00A8030880B5
:100E7F0005C333CE33CED8F9FFEDF582EF5582247B
:100E8F00FF92A7C2A6D2A60BBB08DDE4FBD2A6C277
:100E9F00A630A70D7401A803088002C333D8FC4203
:0B0EAF00010BBB08E8C2A5C2A7AF0101
:010EBA002215
:100BAC00E4FDFC7F8E120E16E50875F00A8475F0D4
:100BBC0010A4FFAEF0E50875F00A84EF7F8C120EDE
:100BCC0010E50975F00A8475F010A4FFAEF0E50984
:100BDC0075F00A847C00EF7F88120E10E50A75F020
:100BEC000A8475F010A4FFAEF0E50A75F00A847C57
:100BFC0000EF25F0FDEC3EFC7F86120E16E50B7522
:100C0C00F00A8475F010A4FFAEF0E50B75F00A84C1
:100C1C007C00EF25F0FDEC3EFC7F84120E16E50CFB
:100C2C0075F00A8475F010A4FFAEF0E50C75F00AAF
:100C3C00847C00EF25F0FDEC3EFC7F82120E16E565
:100C4C000D75F00A8475F010A4FFAEF0E50D75F08B
:100C5C000A847C00EF25F0FDEC3EFC7F80120E1622
:100C6C00E50E75F00A8475F010A4FFAEF0E50E7574
:100C7C00F00A847C00EF25F0FDEC3EFC7F8A120E1E
:0A0C8C00167D807C007F8E020E169C
:100C96007F8C120E6DEFC4540F75F00AA4FEEF544C
:100CA6000F2EF5087F88120E6DEFC4540F75F00AEB
:100CB600A4FEEF540F2EF5097F86120E6DEFC45475
:100CC6000F75F00AA4FEEF540F2EF50A7F84120E5C
:100CD6006DEFC4540F75F00AA4FEEF540F2EF50BFA
:100CE6007F82120E6DEFC4540F75F00AA4FEEF5406
:100CF6000F2EF50C7F80120E6DEFC4540F75F00A9F
:100D0600A4FEEF540F2EF50D7F8A120E6DEFC4541C
:0C0D16000F75F00AA4FEEF540F2EF50E2E
:010D220022AE
:100DAF00E4F5642090137F14FE1211C73091FD7F7C
:100DBF00147E001211C77564012091147F147E00F8
:100DCF001211C73090FD7F147E001211C775640297
:100DDF002092147F147E001211C73092FD7F147E73
:100DEF00001211C77564032093147F147E00121133
:100DFF00C73093FD7F147E001211C7756404AF6472
:010E0F0022C0
:101185005389F0438901758A18758CFCC28DD28C00
:07119500D2A9D2AFC2B922BA
:06121100C2958F80D29609
:081217007F027EEFDEFEDFFC2A
:01121F0022AC
:0A122D00C294121211C296021217A9
:1010E200CFCDCFCECCCE1205AE7C007D0A1205AE9E
:0410F200ED2430FFBA
:0A10F600D294121211C296021217D2
:10119C00AE07BE0104ED148006BE0209ED243F44E7
:0611AC0080FF12122D224B
:1011DC007F3812122D7F0C12122D7F0612122D7FCA
:0411EC000102122DBD
:0A123700AC0312119CAF040210F684
:0610BF008B488A49894AB2
:1010C50012119CE4FDAB48AA49A94A8D827583009B
:0C10D50012055DFF60061210F60D80E9A8
:0110E10022EC
:0C100B007F0AEA24FFFDE434FFFC7E00B5
:081017008E4D8F4E8C4F8D5061
:10101F007F017E00E4FBEBC39550E54F6480F874CD
:0E102F008098500AAC4DAD4E12059C0B80E827
:01103D002290
:04111D008A4A8B4B24
:1011210012119CAA4CEAD39400400D12100BAC4A48
:08113100AD4B1210E21A80ED33
:011139002293
:100EF70012119CC3EA64809480400B7F2B1210F67A
:100F07008A148B15800E7F2D1210F6C3E49BF515FE
:100F1700E49AF514AA13EAD39400400D12100BAC0F
:090F270014AD151210E21A80ED60
:010F3000229E
:040F31008A188B1976
:100F350012119CAA1AEAD3940040297F1012100DB1
:100F4500AC18AD19CFCDCFCECCCE1205AEEF540F28
:100F5500FEC3940AEE5004243080022437FF121099
:040F6500F61A80D127
:010F69002265
:040F6A008A1D8B1E33
:100F6E0012119CAA1FEAD394004028EA24FFFDE444
:100F7E0034FFFC7F027E00121017AC1DAD1ECFCDCC
:100F8E00CFCECCCE1205AEEF54012430FF1210F6A8
:030F9E001A80D2E4
:010FA100222D
:10000300020199EC5D046005E85904700302018F55
:1000130012015A580460F6EC4860F2EC7004FDFEDD
:10002300FF22C860DB2481C85009C39860025006D0
:100033000201969850CAF582E9294B4A7005AB82B2
:1000430002018575F0007C1A7880C3EF9BEE9AED70
:1000530099400DC3EF9BFFEE9AFEED99FDE842F048
:10006300DC23ACF0D0E0FFD0E0FED0E0FDAB82209B
:10007300E7101BEB60BAEC2CFCEF33FFEE33FEED25
:1000830033FD020171E803F830E705C0F075F000B5
:10009300EF2FFFEE33FEED33FD40B830E7C280AA09
:1000A30074F8CC6480CCC86480C8F58204604FC304
:1000B300EB9FF5F0EA9E42F0E99D42F0E89C45F0A3
:1000C300603C501DE5825FFFE582D313CB5BCBF42D
:1000D3002B5582FB50280ABA002409B90020088056
:1000E3001DE5825BFBE582D313CF5FCFF4C3132FF0
:1000F3005582FF50090EBE00050DBD00010CC3EB78
:100103009FF5F0EA9E42F0E99D42F0E89C45F060DD
:0901130007CC4820E701B3EC22FF
:10011C0075F020800E75F010800575F0087D007E5E
:10012C00007F003392D530D503120603EC33401018
:10013C00EF33FFEE33FEED33FDEC33FCD5F0ED2267
:0E014C00E5F0247EA2D513CC92E7CDCEFF22A3
:10064700E55F244BF8E6055F227848300702784BD0
:10065700E475F0011206110205442000EB7F2ED24B
:10066700008018EF540F2490D43440D4FF30040B8B
:10067700EF24BFB41A0050032461FFE56060021540
:10068700600563E5637002056230070D7848E4751D
:10069700F001120611EF02058A0210987403D207BF
:1006A7008003E4C207F55F8B488A49894AE4F5600D
:1006B700F562F563E56060077F2012068280F575B5
:1006C70061FFC201C200C202C203C205C206C2085C
:1006D700120650FF700D3007057F00120693AF63B7
:1006E700AE6222B4255FC2D5C204120650FF24D0E1
:1006F700B40A00501A75F00A786030D50508B6FFBD
:100707000106C6A426F620D5047002D20380D92498
:10071700CFB41A00EF5004C2E5D204020980D20117
:1007270080C6D20080C0D20280BCD2D580BAD205A2
:1007370080B47F201206822002077401B560004052
:10074700F1120647FF1206820206BBD208D20680C4
:1007570095120647FB120647FA120647F94A4B70ED
:100767000679777A0A7BFF20022EE560602A7E00F1
:100777008E8275830012055D60060EEE656170F06E
:10078700C2D5EBC0E0EAC0E0E9C0E0EE1209E0D074
:10079700E0F9D0E0FAD0E0FB120544FF60AAEBC015
:1007A700E0EAC0E0E9C0E0120682D0E02401F9D017
:1007B700E03400FAD0E0FBE5610460DCD561D98064
:1007C70087D20280A21209C360F7E56170010412A3
:1007D70001A4A961600DE561600914F561120A6A57
:1007E700EF60F3EA30E702F404C3995077EAF4259F
:1007F700610430E701E404F561800D1209C360C1AB
:10080700EA056125611201A4EA785EF630E701E4A2
:10081700256104D56104200501141209E0E4C0E054
:10082700120A6A785EE6601320E70714F612066A72
:10083700802204F6D0E014C0E07F0012066AE5616A
:1008470060071206611561800B300503120661D03F
:10085700E00206BBD0E00480C51209C360A0E561D1
:10086700041201A4785EEAF6E5612005026001043E
:0508770024041209E059
:10087C0074FF04C0E0120A6A12066AE561200502E0
:10088C006003120661D0E0B561E87F45120674780A
:10089C005EE67F2B30E7047F2DF404C0E012068265
:1008AC00D0E075F00A84C0F012066BD0E012066B33
:1008BC000206BB791080027908C206C2088008D2F1
:1008CC00D5790A8004790AC2D5E561047002F56114
:1008DC00E4FAFDFEFF120647FC7B0820011312060A
:1008EC0047FD7B1030000A120647FE120647FF7BBD
:1008FC0020EC3382D592D55013C3E43000069FFF11
:10090C00E49EFEE42001039DFDE49CFCE4CBF8C2D4
:10091C0001EC700CCFCECDCCE824F8F870F3801736
:10092C00C3EF33FFEE33FEED33FDEC33FCEB33FB67
:10093C00994002FB0FD8E9EB300105F8D0E0C44830
:10094C00B201C0E00AEC4D4E4F78207B0070C2EA39
:10095C00B5610040BCC0E01209E2D0F0D0E020014B
:10096C0004C4C0E0C4B201C0F012066BD0F0D5F0E4
:10097C00EB0206BB12062107585308BF5807294C37
:10098C0007254208C34F08CB4408CB49073E430810
:10099C00D15508024608604507CC470A9750072DE9
:1009AC002D07312E07542B0735230752200A802A96
:1009BC0006ED480000074CE561B4FF0375610612B3
:1009CC000647FC120647FD120647FE120647FF7843
:1009DC00570201D3790AA2D5200314300509B910A6
:1009EC00020404B9080104A2D52006025001042017
:1009FC0002689202B560005034C0E07F20300319C9
:100A0C007F30A20272067205500F120A39C202C25E
:100A1C0006C205C2087F30800F300503E9C0E01222
:100A2C000682300503D0E0F9D0E0B560CC30051774
:100A3C007F30B9100C1206827F583004077F788003
:100A4C0003B908031206823002057F2D0206827F4D
:100A5C00202008F87F2B2006F322920280CF7F0003
:100A6C00B4070050052457F8E6FF22286E756C6C0D
:100A7C002900D2011206473001F8C201786030D546
:100A8C000108F60206ED2D5043495812064724037F
:100A9C00B405004001E4900A9293120673743A1262
:0A0AAC000673D2037560040208BF50
:10015A00E9D2E7C933E833F892D5EDD2E7CD33ECEB
:07016A0033FC5002B2D52264
:10017100EC30E7100FBF000C0EBE00080DBD0004EF
:100181000BEB6014A2D5EB13FCED92E7FD2274FF9B
:10019100FCFDFEFF22E480F8A2D574FF13FC7D80F4
:0301A100E480EF08
:1001A400F920E72824F950037907E4F42402FB1822
:1001B400DBFDE624FB5014E9600DE4F618E604F6D2
:0F01C400B40A08E4F6D9F57401F60A22C2D5226E
:1001D300ED33EC3392D5FA602AB4FF33EDC2E77BFB
:1001E300FF60067A0179F8E4227A02790120D504C6
:1001F3007A0179FC224E614E002B494E46002D496F
:100203004E4600E47A08F608DAFC7B00740722E81D
:10021300C0E0ECC0E0EDC0E0EEC0E0EFC0E0EA75A6
:10022300F010A4CAABF075F04DA42BFBE435F0FC41
:10023300EA2410FAEB34C5FBEC34D9FCEDC2E7FF3A
:1002430075F056A4F42411C5F0F434C58FF0A42A34
:10025300E5F03BE43CF620E714120504D0E0FFD0C0
:10026300E0FED0E0FDD0E0FC1200068014F404129E
:100273000504D0E0FFD0E0FED0E0FDD0E0FC1203A7
:10028300CED0E0F8E6FAEDD2E7CD33EC332482FBAF
:10029300E4C3CF33CFCE33CECD33CD33DBF37B07C4
:1002A30075F00A846004F6081B0AE5F0F6088FF07F
:1002B300740AA4FFACF08EF0740AA42CFEACF050C8
:1002C300010C8DF0740AA42CFDE435F0F608DBDE96
:0302D3007407228B
:1002D60002018FE86480F8E933E83360110460F0C6
:1002E600ED33EC337009E8FCE9FDEAFEEBFF22048E
:1002F60060DED3EB9FEA9EE99DE8C2E78CF0C2F789
:1003060095F0400CE8CCF8E9CDF9EACEFAEBCFFB54
:1003160012015A85D0F05804700320D5B3E8047052
:10032600075002B2D502019992D5EC0460F7E4CCED
:10033600C0E0C398F8603B94186008400DD0E0FB1D
:10034600020171E4FBFAC9FC8028E830E406E4C93E
:10035600FBE4CAFCE830E305E4C9CACBFCE8540771
:100366006010F8C3E913F9EA13FAEB13FBEC13FC7C
:10037600D8F130F52FC3E49CFCEF9BFFEE9AFEED1F
:1003860099FDD0E0FBEF4E4D4C701222DB030201CB
:1003960096EC2CFCEF33FFEE33FEED33FDED30E74C
:1003A600EB020171EF2BFFEE3AFEED39FDD0E0FBDB
:1003B60050130BBB0003020199ED13FDEE13FEEF84
:0803C60013FFEC13FC020171AE
:1003CE00EC4D6011E8497017ED33EC3304600DE429
:1003DE00FCFFFEFD22E933E8330470F802018F12B0
:1003EE00015A58046009E4CC2481500628500902B1
:1003FE000199284003020196C0E0EB4A7044B9808F
:10040E0006D0E0FB020185EF4E701CBD8008EBFFAD
:10041E00EAFEE9FD80EBE98DF0A4FEE5F00204B7FB
:10042E00E9CDF9EAFEEBFFEF89F0A4FCE5F0CE8909
:10043E00F0A42EFFE435F0CD89F0A42DFEE435F0C6
:10044E008067EF4E7005BD80D780C3EF8BF0A4ACF4
:10045E00F0EE8BF0A42CFCE435F0F8EF8AF0A42C2F
:10046E00E5F038FCE433CB8DF0A42CFCE5F03BF842
:10047E00EE8AF0A42CFCE5F038F8E433CF89F0A432
:10048E002CFCE5F038CF3400CE89F0A42FFFE5F038
:10049E003EFEE433C98DF0A42EFEE5F039CD8AF090
:1004AE00A42FFFE5F03EFEE43DFD33D0E0FB500708
:1004BE000BBB000F020199EC2CFCEF33FFEE33FE69
:0604CE00ED33FD02017197
:1004D4003F8000004120000042C80000447A000030
:1004E400461C400047C35000497424004B189680B2
:1004F4004CBEBC205A0E1BCA6753C21C749DC5AEA9
:10050400FB60065407601C2323120532EB54386049
:100514000912051E12052D1203CEECF8EDF9EEFAC0
:10052400EFCB22EB12052D80F1543803241C9004E8
:10053400D4FE93FC0EEE93FD0EEE930ECE93FF22AB
:03000000020D23CB
:0C0D2300787FE4F6D8FD758164020D6A4B
:10054400BB010689828A83E0225002E722BBFE02B5
:09055400E32289828A83E49322E8
:10055D00BB010CE58229F582E5833AF583E0225053
:10056D0006E92582F8E622BBFE06E92582F8E2229D
:0D057D00E58229F582E5833AF583E49322B7
:10058A00BB010689828A83F0225002F722BBFE0150
:02059A00F3224A
:10059C00EF8DF0A4A8F0CF8CF0A428CE8DF0A42E73
:0205AC00FE222D
:1005AE00BC000BBE0029EF8DF084FFADF022E4CC31
:1005BE00F875F008EF2FFFEE33FEEC33FCEE9DECFA
:1005CE00984005FCEE9DFE0FD5F0E9E4CEFD22ED40
:1005DE00F8F5F0EE8420D21CFEADF075F008EF2F8A
:1005EE00FFED33FD4007985006D5F0F222C398FD7B
:0505FE000FD5F0EA2218
:0E060300C3E49FFFE49EFEE49DFDE49CFC2208
:10061100FAE6FB0808E6F925F0F618E6CA3AF622EA
:10062100D083D082F8E4937012740193700DA3A368
:1006310093F8740193F5828883E47374029368607C
:06064100EFA3A3A380DF7C
:10109800EFB40A07740D1210A3740A309811A899B6
:1010A800B8130CC2983098FDA899C298B811F630B8
:0710B80099FDC299F5992290
:100D2F0002103EE493A3F8E493A34003F68001F28C
:100D3F0008DFF48029E493A3F85407240CC8C333C5
:100D4F00C4540F4420C8834004F456800146F6DF94
:100D5F00E4800B01020408102040809011B2E47E61
:100D6F00019360BCA3FF543F30E509541FFEE49389
:100D7F00A360010ECF54C025E060A840B8E493A350
:100D8F00FAE493A3F8E493A3C8C582C8CAC583CA7B
:100D9F00F0A3C8C582C8CAC583CADFE9DEE780BE33
:0111C6000028
:00000001FF
