:100F480020203A20203A202000253032643A2530EB
:100F580032643A2530326420252E31660074656D7E
:100F6800703A252E3166002020636F6C64210020C2
:100F780020686F742100202020202020202020209D
:100F880020202020202000204E6F726D616C2100EF
:080F980074656D703A257300C9
:10000300046D000000000361000000015C00016852
:040013000001640084
:1010CF00121384120E7612135E1213E97FE87E0359
:1010DF00121349120BE57BFF7A0F79487D017F02CE
:1010EF00121234121099120AFB121166120E761296
:0410FF00000080EF7E
:100E7600AF6CAE6BAD6AAC69AB70AA6FA96EA86DAC
:100E86001200C6605F7543FF75440F754551850BAB
:100E960046850C47850D48856C4C856B4B856A4AA3
:100EA6008569497B007A0079711206E8E4F53F749A
:100EB60071253FF8E6FE6020AB61AA62A9631205C0
:100EC60067FFEEFD7C0012121074012563F563E4E2
:100ED6003562F562053F80D7856C70856B6F856AD4
:040EE6006E85696D3F
:010EEA0022E5
:0F1384001213A21211948F6C8E6B8D6A8C6922DA
:10116600D3E50B6480948750047F0180027F00C31F
:10117600E50B6480949640047E0180027E00EE4F6B
:0E1186006008C297C2A075640122E4F56422DD
:100AFB001213847543FF75440F754565856C4985E5
:100B0B006B48856A478569467B007A0079711206C6
:100B1B00E87B007A007971E4FD7F01121234E4FF67
:100B2B00FE7D487C42AB6CAA6BA96AA8691200C611
:100B3B00600840067F01C00780047F00C007E4FF08
:100B4B00FE7D207C42AB6CAA6BA96AA8691200C619
:100B5B0050047E0180027E00D0E04E6056E564704A
:100B6B0002D2A0E4FFFE7D207C42AB6CAA6BA96A8B
:100B7B00A8691200C650137BFF7A0F796F7D097F2E
:100B8B0001121234D29775680122E4FFFE7D487C76
:100B9B0042AB6CAA6BA96AA8691200C6603B4039CC
:100BAB007BFF7A0F79777D097F011212347568010B
:100BBB00C29722E568B40110E4F5687BFF7A0F79E0
:100BCB007E7D097F011212347BFF7A0F798F7D09AD
:0A0BDB007F01121234C2A0C297225B
:10109900120D5DE50BFB3395E0FA7543027D017F87
:1010A900021212B0E50CFB3395E0FA7543027D0498
:1010B9007F021212B0E50DFB3395E0FA7543027D0C
:0610C900077F020212B0D5
:03002300020CCFFD
:100CCF00C0E0C0F0C083C082C0D075D000C000C0EB
:0D0CDF0001C002C003C004C005C006C0076C
:100CEC00309853C298AF99EF640AAB65AA66A967AE
:100CFC00600FAE5C055C8E82758300EF1205BF80C1
:100D0C0035855C82758300E41205BF7543FF75441D
:100D1C000F7545988565468566478567487BFF7ADC
:100D2C000A79FB1206E87BFF7A0A79FB7D097F01C1
:060D3C00121234755C0088
:100D4200D007D006D005D004D003D002D001D00005
:0B0D5200D0D0D082D083D0F0D0E032AF
:0D13A2001212E87FCC1213027F44021302E6
:101194001212E87FCC1213027FBE121302121293B2
:1011A4008F3F121293EFFEE53FFFFDAC06EC1201F8
:0B11B40044E4FBFA7980784112002926
:0111BF00220D
:10134900EF1FAC0670011E4C600A7D027CEFDCFECB
:04135900DDFC80EC4B
:01135D00226D
:1012E800D2A1C2A17FF7DFFED2A17F20DFFEA2A19B
:0912F800E433FE7FF7DFFEAF06D0
:0113010022C9
:10137200C2A17E04DEFEEF24FF92A17E18DEFED221
:01138200A1C9
:011383002247
:10131B00C2A17F02DFFED2A17F02DFFEA2A1E433D6
:07132B00FE7F18DFFEAF0694
:011332002298
:02130200AD0735
:10130400E4FC7401A804088002C333D8FC5DFF1216
:0613140013720CBC08EC92
:01131A0022B0
:10129300E4FDFC12131BEF600D7401A80408800227
:0C12A300C333D8FC42050CBC08E9AF05C1
:0112AF00221C
:090017000708130B100C3B000656
:0513E900C2A5C2A6220E
:060EEB0025F0FDEC3EFCC9
:060EF1008C3F8D40AB07B1
:100EF700D2A5E4FD74017E00A805088005C333CEA2
:100F070033CED8F9FFEBF582EF558224FF92A7D2B3
:100F1700A6C2A60DBD08DDE4FD74017E00A8050884
:100F27008005C333CE33CED8F9FFE53F5EFEE540FB
:100F37005F4E24FF92A7D2A6C2A60DBD08DBC2A5AD
:010F47002287
:020FA000AD079B
:100FA200E4F9430501D2A5FB74017E00A803088081
:100FB20005C333CE33CED8F9FFEDF582EF55822447
:100FC200FF92A7C2A6D2A60BBB08DDE4FBD2A6C243
:100FD200A630A70D7401A803088002C333D8FC42CF
:0B0FE200010BBB08E8C2A5C2A7AF01CD
:010FED0022E1
:100BE500E4FDFC7F8E120EF1E50875F00A8475F0C0
:100BF50010A4FFAEF0E50875F00A84EF7F8C120EA5
:100C0500EBE50975F00A8475F010A4FFAEF0E5096F
:100C150075F00A847C00EF7F88120EEBE50A75F00B
:100C25000A8475F010A4FFAEF0E50A75F00A847C1D
:100C350000EF25F0FDEC3EFC7F86120EF1E50B750D
:100C4500F00A8475F010A4FFAEF0E50B75F00A8488
:100C55007C00EF25F0FDEC3EFC7F84120EF1E50CE7
:100C650075F00A8475F010A4FFAEF0E50C75F00A76
:100C7500847C00EF25F0FDEC3EFC7F82120EF1E551
:100C85000D75F00A8475F010A4FFAEF0E50D75F052
:100C95000A847C00EF25F0FDEC3EFC7F80120EF10E
:100CA500E50E75F00A8475F010A4FFAEF0E50E753B
:100CB500F00A847C00EF25F0FDEC3EFC7F8A120EE5
:0A0CC500F17D807C007F8E020EF1AD
:100D5D007F8C120FA0EFC4540F75F00AA4FEEF5450
:100D6D000F2EF5087F88120FA0EFC4540F75F00AEF
:100D7D00A4FEEF540F2EF5097F86120FA0EFC45479
:100D8D000F75F00AA4FEEF540F2EF50A7F84120F93
:100D9D00A0EFC4540F75F00AA4FEEF540F2EF50BFF
:100DAD007F82120FA0EFC4540F75F00AA4FEEF540A
:100DBD000F2EF50C7F80120FA0EFC4540F75F00AA3
:100DCD00A4FEEF540F2EF50D7F8A120FA0EFC45421
:0C0DDD000F75F00AA4FEEF540F2EF50E67
:010DE90022E7
:06139300C2958F80D29686
:081399007F027EEFDEFEDFFCA7
:0113A1002229
:0A13BB00C294121393C29602139914
:10125700CFCDCFCECCCE1205F37C007D0A1205F39D
:04126700ED2430FF43
:0A126B00D294121393C29602139955
:10133300AE07BE0104ED148006BE0209ED243F444E
:0613430080FF1213BB2223
:10135E007F381213BB7F0C1213BB7F061213BB7F99
:04136E00010213BBAA
:0A13C500AC03121333AF0402126BE5
:061234008B3F8A40894156
:10123A00121333E4FDAB3FAA40A9418D82758300A6
:0C124A00120580FF600612126B0D80E997
:011256002275
:0C1103007F0AEA24FFFDE434FFFC7E00BC
:08110F008E448F458C468D478C
:101117007F017E00E4FBEBC39547E5466480F874E6
:0E1127008098500AAC44AD451205E10B80E8FB
:011135002297
:0412B0008A418B42A2
:1012B400121333AA43EAD39400400D121103AC4134
:0812C400AD421212571A80ED31
:0112CC0022FF
:100FEE00121333C3EA64809480400B7F2B12126B72
:100FFE008A148B15800E7F2D12126BC3E49BF51590
:10100E00E49AF514AA13EAD39400400D121103AC1E
:09101E0014AD151212571A80EDF1
:0110270022A6
:041028008A188B197E
:10102C00121333AA1AEAD3940040297F1012110527
:10103C00AC18AD19CFCDCFCECCCE1205F3EF540FEB
:10104C00FEC3940AEE5004243080022437FF12129F
:04105C006B1A80D1BA
:01106000226D
:041061008A1D8B1E3B
:10106500121333AA1FEAD394004028EA24FFFDE4B3
:1010750034FFFC7F027E0012110FAC1DAD1ECFCDDB
:10108500CFCECCCE1205F3EF54012430FF12126BF4
:031095001A80D2EC
:011098002235
:1012CD0075985043878053890F438920758DFD751F
:0B12DD008BFDC2ABD28ED2ACD2AF2290
:0913D900D2A3D2A2C2A3C2A22237
:0713E200C2A3D2A2D2A32294
:0211C000AD0779
:1011C200E4FB74807E00A803088006CEA2E713CE5B
:1011D20013D8F8FFEDF582EF558224FF92A3D2A235
:0611E200C2A20BBB08DCF9
:0111E80022E4
:10127500E4FFD2A3FED2A230A30D7480A806088095
:0D12850002C313D8FC4207C2A20EBE08E847
:011292002239
:0A13CF00EF24FF92A3D2A2C2A222D3
:0B13AF00D2A3D2A2A2A3E433FFC2A28B
:0113BA002210
:101210008F408C418D421213D97FA01211C012133E
:10122000AFAF401211C01213AFAF421211C0121370
:04123000AF0213E214
:021136008F7BAD
:101138001213D97FA01211C01213AFAF7B1211C0C6
:101148001213AF1213D97FA11211C01213AF1212CA
:0D115800758F7C7F011213CF1213E2AF7C64
:011165002267
:100026000201BCEC5D046005E8590470030201B2EC
:1000360012017D580460F6EC4860F2EC7004FDFE97
:10004600FF22C860DB2481C85009C39860025006AD
:100056000201B99850CAF582E9294B4A7005AB826C
:100066000201A875F0007C1A7880C3EF9BEE9AED2A
:1000760099400DC3EF9BFFEE9AFEED99FDE842F025
:10008600DC23ACF0D0E0FFD0E0FED0E0FDAB822078
:10009600E7101BEB60BAEC2CFCEF33FFEE33FEED02
:1000A60033FD020194E803F830E705C0F075F0006F
:1000B600EF2FFFEE33FEED33FD40B830E7C280AAE6
:1000C60074F8CC6480CCC86480C8F58204604FC3E1
:1000D600EB9FF5F0EA9E42F0E99D42F0E89C45F080
:1000E600603C501DE5825FFFE582D313CB5BCBF40A
:1000F6002B5582FB50280ABA002409B90020088033
:100106001DE5825BFBE582D313CF5FCFF4C3132FCC
:100116005582FF50090EBE00050DBD00010CC3EB54
:100126009FF5F0EA9E42F0E99D42F0E89C45F060BA
:0901360007CC4820E701B3EC22DC
:10013F0075F020800E75F010800575F0087D007E3B
:10014F00007F003392D530D503120648EC334010B0
:10015F00EF33FFEE33FEED33FDEC33FCD5F0ED2244
:0E016F00E5F0247EA2D513CC92E7CDCEFF2280
:10068C00E5572443F8E605572278403010027843AA
:10069C00E475F0011206560205672009EB7F2ED295
:1006AC00098018EF540F2490D43440D4FF300D0B34
:1006BC00EF24BFB41A0050032461FFE55860021503
:1006CC0058055BE55B7002055A30100D7840E475F7
:1006DC00F001120656EF0205AD0211E97403D210B7
:1006EC008003E4C210F5578B408A418942E4F558E7
:1006FC00F55AF55BE55860077F201206C780F57543
:10070C0059FFC20AC209C20BC20CC20EC20FC211DF
:10071C00120695FF700D3010057F001206D8AF5BE6
:10072C00AE5A22B4255FC2D5C20D120695FF24D055
:10073C00B40A00501A75F00A785830D50508B6FF7F
:10074C000106C6A426F620D5047002D20C80D9244A
:10075C00CFB41A00EF5004C2E5D20D0209C5D20A7B
:10076C0080C6D20980C0D20B80BCD2D580BAD20E42
:10077C0080B47F201206C7200B077401B5580040C7
:10078C00F112068CFF1206C7020700D211D20F809D
:10079C009512068CFB12068CFA12068CF94A4B70D9
:1007AC000679BC7A0A7BFF200B2EE558602A7E0066
:1007BC008E8275830012058060060EEE655970F00E
:1007CC00C2D5EBC0E0EAC0E0E9C0E0EE120A25D0E9
:1007DC00E0F9D0E0FAD0E0FB120567FF60AAEBC0AD
:1007EC00E0EAC0E0E9C0E01206C7D0E02401F9D08D
:1007FC00E03400FAD0E0FBE5590460DCD559D9802F
:10080C0087D20B80A2120A0860F7E5597001041216
:10081C0001C7A959600DE559600914F559120AAFC1
:10082C00EF60F3EA30E702F404C3995077EAF42559
:10083C00590430E701E404F559800D120A0860C12F
:10084C00EA055925591201C7EA7856F630E701E452
:10085C00255904D55904200E0114120A25E4C0E0D0
:10086C00120AAF7856E6601320E70714F61206AFAB
:10087C00802204F6D0E014C0E07F001206AFE559E8
:10088C0060071206A61559800B300E031206A6D06F
:10089C00E0020700D0E00480C5120A0860A0E55908
:1008AC00041201C77856EAF6E559200E02600104DD
:0508BC002404120A25CE
:1008C10074FF04C0E0120AAF1206AFE559200E0210
:1008D10060031206A6D0E0B559E87F451206B97843
:1008E10056E67F2B30E7047F2DF404C0E01206C7E3
:1008F100D0E075F00A84C0F01206B0D0E01206B064
:10090100020700791080027908C20FC2118008D253
:10091100D5790A8004790AC2D5E559047002F559DE
:10092100E4FAFDFEFF12068CFC7B08200A13120676
:100931008CFD7B1030090A12068CFE12068CFF7B9F
:1009410020EC3382D592D55013C3E43009069FFFC2
:10095100E49EFEE4200A039DFDE49CFCE4CBF8C286
:100961000AEC700CCFCECDCCE824F8F870F38017E8
:10097100C3EF33FFEE33FEED33FDEC33FCEB33FB22
:10098100994002FB0FD8E9EB300A05F8D0E0C448E2
:10099100B20AC0E00AEC4D4E4F78207B0070C2EAEB
:1009A100B5590040BCC0E0120A27D0F0D0E0200ABF
:1009B10004C4C0E0C4B20AC0F01206B0D0F0D5F051
:1009C100EB020700120666079D53090458076E4C97
:1009D100076A4209084F091044091049078343096E
:1009E100165508474608A5450811470ADC50077205
:1009F1002D07762E07992B077A230797200AC52AF8
:100A010007324800000791E559B4FF0375590612F2
:100A1100068CFC12068CFD12068CFE12068CFF78E9
:100A21004F0201F6790AA2D5200C14300E09B91033
:100A3100020404B9080104A2D5200F0250010420C8
:100A41000B68920BB558005034C0E07F20300C1970
:100A51007F30A20B720F720E500F120A7EC20BC2B0
:100A61000FC20EC2117F30800F300E03E9C0E012B9
:100A710006C7300E03D0E0F9D0E0B558CC300E17E0
:100A81007F30B9100C1206C77F58300D077F788070
:100A910003B908031206C7300B057F2D0206C77F75
:100AA100202011F87F2B200FF322920B80CF7F00A3
:100AB100B407005005244FF8E6FF22286E756C6CD0
:100AC1002900D20A12068C300AF8C20A785830D5A9
:100AD1000108F60207322D5043495812068C2403AF
:100AE100B405004001E4900AD7931206B8743A1293
:0A0AF10006B8D20C7558040209047F
:10017D00E9D2E7C933E833F892D5EDD2E7CD33ECC8
:07018D0033FC5002B2D52241
:10019400EC30E7100FBF000C0EBE00080DBD0004CC
:1001A4000BEB6014A2D5EB13FCED92E7FD2274FF78
:1001B400FCFDFEFF22E480F8A2D574FF13FC7D80D1
:0301C400E480EFE5
:1001C700F920E72824F950037907E4F42402FB18FF
:1001D700DBFDE624FB5014E9600DE4F618E604F6AF
:0F01E700B40A08E4F6D9F57401F60A22C2D5224B
:1001F600ED33EC3392D5FA602AB4FF33EDC2E77BD8
:10020600FF60067A02791BE4227A02792420D5045B
:100216007A02791F224E614E002B494E46002D4927
:100226004E4600E47A08F608DAFC7B00740722E8FA
:10023600C0E0ECC0E0EDC0E0EEC0E0EFC0E0EA7583
:10024600F010A4CAABF075F04DA42BFBE435F0FC1E
:10025600EA2410FAEB34C5FBEC34D9FCEDC2E7FF17
:1002660075F056A4F42411C5F0F434C58FF0A42A11
:10027600E5F03BE43CF620E714120527D0E0FFD07A
:10028600E0FED0E0FDD0E0FC1200298014F4041258
:100296000527D0E0FFD0E0FED0E0FDD0E0FC120361
:1002A600F1D0E0F8E6FAEDD2E7CD33EC332482FB69
:1002B600E4C3CF33CFCE33CECD33CD33DBF37B07A1
:1002C60075F00A846004F6081B0AE5F0F6088FF05C
:1002D600740AA4FFACF08EF0740AA42CFEACF050A5
:1002E600010C8DF0740AA42CFDE435F0F608DBDE73
:0302F60074072268
:1002F9000201B2E86480F8E933E83360110460F080
:10030900ED33EC337009E8FCE9FDEAFEEBFF22046A
:1003190060DED3EB9FEA9EE99DE8C2E78CF0C2F765
:1003290095F0400CE8CCF8E9CDF9EACEFAEBCFFB31
:1003390012017D85D0F05804700320D5B3E804700C
:10034900075002B2D50201BC92D5EC0460F7E4CCA7
:10035900C0E0C398F8603B94186008400DD0E0FBFA
:10036900020194E4FBFAC9FC8028E830E406E4C9F8
:10037900FBE4CAFCE830E305E4C9CACBFCE854074E
:100389006010F8C3E913F9EA13FAEB13FBEC13FC59
:10039900D8F130F52FC3E49CFCEF9BFFEE9AFEEDFC
:1003A90099FDD0E0FBEF4E4D4C701222DB030201A8
:1003B900B9EC2CFCEF33FFEE33FEED33FDED30E706
:1003C900EB020194EF2BFFEE3AFEED39FDD0E0FB95
:1003D90050130BBB00030201BCED13FDEE13FEEF3E
:0803E90013FFEC13FC02019468
:1003F100EC4D6011E8497017ED33EC3304600DE406
:10040100FCFFFEFD22E933E8330470F80201B21269
:10041100017D58046009E4CC24815006285009026A
:1004210001BC2840030201B9C0E0EB4A7044B98025
:1004310006D0E0FB0201A8EF4E701CBD8008EBFF67
:10044100EAFEE9FD80EBE98DF0A4FEE5F00204DAB5
:10045100E9CDF9EAFEEBFFEF89F0A4FCE5F0CE89E6
:10046100F0A42EFFE435F0CD89F0A42DFEE435F0A3
:100471008067EF4E7005BD80D780C3EF8BF0A4ACD1
:10048100F0EE8BF0A42CFCE435F0F8EF8AF0A42C0C
:10049100E5F038FCE433CB8DF0A42CFCE5F03BF81F
:1004A100EE8AF0A42CFCE5F038F8E433CF89F0A40F
:1004B1002CFCE5F038CF3400CE89F0A42FFFE5F015
:1004C1003EFEE433C98DF0A42EFEE5F039CD8AF06D
:1004D100A42FFFE5F03EFEE43DFD33D0E0FB5007E5
:1004E1000BBB000F0201BCEC2CFCEF33FFEE33FE23
:0604F100ED33FD02019451
:1004F7003F8000004120000042C80000447A00000D
:10050700461C400047C35000497424004B1896808E
:100517004CBEBC205A0E1BCA6753C21C749DC5AE85
:10052700FB60065407601C2323120555EB54386003
:10053700091205411205501203F1ECF8EDF9EEFA34
:10054700EFCB22EB12055080F1543803241C9004A2
:10055700F7FE93FC0EEE93FD0EEE930ECE93FF2265
:03000000020DEA04
:0C0DEA00787FE4F6D8FD75817C020E31A4
:10056700BB010689828A83E0225002E722BBFE0292
:09057700E32289828A83E49322C5
:10058000BB010CE58229F582E5833AF583E0225030
:1005900006E92582F8E622BBFE06E92582F8E2227A
:0D05A000E58229F582E5833AF583E4932294
:1005AD00BB010689828A83F0225002F722BBFE012D
:0205BD00F32227
:1005BF00F8BB010DE58229F582E5833AF583E8F072
:1005CF00225006E92582C8F622BBFE05E92582C81E
:0205DF00F22206
:1005E100EF8DF0A4A8F0CF8CF0A428CE8DF0A42E2E
:0205F100FE22E8
:1005F300BC000BBE0029EF8DF084FFADF022E4CCEC
:10060300F875F008EF2FFFEE33FEEC33FCEE9DECB4
:10061300984005FCEE9DFE0FD5F0E9E4CEFD22EDFA
:10062300F8F5F0EE8420D21CFEADF075F008EF2F44
:10063300FFED33FD4007985006D5F0F222C398FD35
:050643000FD5F0EA22D2
:0E064800C3E49FFFE49EFEE49DFDE49CFC22C3
:10065600FAE6FB0808E6F925F0F618E6CA3AF622A5
:10066600D083D082F8E4937012740193700DA3A323
:1006760093F8740193F5828883E473740293686037
:06068600EFA3A3A380DF37
:1011E900EFB40A07740D1211F4740A309811A89912
:1011F900B8130CC2983098FDA899C298B811F63066
:0712090099FDC299F599223D
:100DF6000210CFE493A3F8E493A34003F68001F234
:100E060008DFF48029E493A3F85407240CC8C333FD
:100E1600C4540F4420C8834004F456800146F6DFCC
:100E2600E4800B0102040810204080900003E47E59
:100E3600019360BCA3FF543F30E509541FFEE493C1
:100E4600A360010ECF54C025E060A840B8E493A388
:100E5600FAE493A3F8E493A3C8C582C8CAC583CAB3
:100E6600F0A3C8C582C8CAC583CADFE9DEE780BE6B
:0100200000DF
:00000001FF
