:100F920020203A20203A202000252E30667C004175
:100FA200542B54000D0A0041542B53746F700041AE
:100FB200542B426567696E0041542B456E64007480
:100FC2000074656D703A25332E3066002020636F01
:100FD2006C6421002020686F7421002020202020D2
:100FE200202020202020202020202000204E6F7250
:050FF2006D616C21009F
:10137F00040C00000000041000000000010900012F
:08138F000800010B00010A0037
:1010A2001215041214CB1213DF121570120BC37B2C
:1010B200FF7A0F79927D017F0212135C1211C7121F
:1010C2000AD9121230AF13AE12AD11AC10AB0FAA87
:1010D2000EA90DA80C1200C66003120E88120CADE8
:0210E20080DAB2
:100E8800E4F5237527FF75280F75299B850F2D8598
:100E98000E2C850D2B850C2AFB7A0079141206C6B8
:100EA8007B007A0079141214B68F23E4F5227414A7
:100EB8002522F8E66045E4FFFE7D0C7C42AB0FAAD4
:100EC8000EA90DA80C1200C6402DE4FFFE7D5C7C27
:100ED80042AB0FAA0EA90DA80C1200C6600250174B
:100EE80074142522F8E6FD7C00AF091212B87F0AB7
:100EF8007E0012000E0509052280B3850F13850EAA
:070F080012850D11850C108C
:010F0F0022BF
:100CAD001215628B3B8A3C893D7544FF75450F7566
:100CBD0046A1120F10EA494B603FE4F522AF09EF50
:100CCD003395E0FEC3E5229FEE6480F87480985062
:100CDD0010AF2212118F74232522F8A6070522804A
:100CED00DC74232509F8E4F6FB7A0079231213A1AD
:100CFD007BFF7A0F79A61213A17544FF75450F7509
:100D0D0046A9AB3BAA3CA93D120F10EA494B7051C5
:100D1D007544FF75450F7546B1AB3BAA3CA93D1215
:100D2D000F10EA494B6003D297227544FF75450FAA
:100D3D007546BAAB3BAA3CA93D120F10EA494B6070
:100D4D0003C297227544FF75450F7546C1AB3BAA8B
:100D5D003CA93D120F10EA494B70067B007A0079D1
:010D6D002362
:010D6E002262
:0F15040012152212128C8F0F8E0E8D0D8C0C2251
:10123000D3E5666480948750047F0180027F00C3F9
:10124000E5666480949640047E0180027E00EE4F45
:0E1250006008C297C2A0750A0122E4F50A22C6
:100AD9001215047527FF75280F7529C3850F2D85F4
:100AE9000E2C850D2B850C2A7B007A0079141206B1
:100AF900C67B007A0079147D017F0112135CE4FF43
:100B0900FE7D487C42AB0FAA0EA90DA80C1200C6A7
:100B1900600840067F01C00780047F00C007E4FF2A
:100B2900FE7D207C42AB0FAA0EA90DA80C1200C6AF
:100B390050047E0180027E00D0E04E6056E50A70C6
:100B490002D2A0E4FFFE7D207C42AB0FAA0EA90DC4
:100B5900A80C1200C650137BFF7A0F79CE7D097F4E
:100B69000112135CD297750B0122E4FFFE7D487CCC
:100B790042AB0FAA0EA90DA80C1200C6603B403962
:100B89007BFF7A0F79D67D097F0112135C750B0102
:100B9900C29722E50BB40110E4F50B7BFF7A0F79BC
:100BA900DD7D097F0112135C7BFF7A0F79EE7D09E8
:0A0BB9007F0112135CC2A0C2972254
:1011C700120D6FE566FB3395E0FA7526027D017F08
:1011D70002121438E567FB3395E0FA7526027D04A1
:1011E7007F02121438E568FB3395E0FA7526027D15
:0611F700077F020214381C
:0D1522001214557FCC12146F7F4402146F19
:10128C001214557FCC12146F7FBE12146F12141BE4
:10129C008F2212141BEFFEE522FFFDAC06EC1201AF
:0B12AC0044E4FBFA798078411200292D
:0112B7002214
:10000E00EF1FAC0670011E4C600A7D027CEFDCFE19
:04001E00DDFC80EC99
:0100220022BB
:10145500D2A1C2A17FF7DFFED2A17F20DFFEA2A12C
:09146500E433FE7FF7DFFEAF0661
:01146E00225B
:1014F200C2A17E04DEFEEF24FF92A17E18DEFED2A0
:01150200A147
:0115030022C5
:10148800C2A17F02DFFED2A17F02DFFEA2A1E43368
:07149800FE7F18DFFEAF0626
:01149F00222A
:02146F00AD07C7
:10147100E4FC7401A804088002C333D8FC5DFF12A8
:0614810014F20CBC08ECA3
:011487002242
:10141B00E4FDFC121488EF600D7401A8040880022F
:0C142B00C333D8FC42050CBC08E9AF0537
:011437002292
:091397000763130B100C3B000668
:05157000C2A5C2A62285
:060FF70025F0FDEC3EFCBC
:060FFD008C228D23AB07DE
:10100300D2A5E4FD74017E00A805088005C333CE94
:1010130033CED8F9FFEBF582EF558224FF92A7D2A6
:10102300A6C2A60DBD08DDE4FD74017E00A8050877
:101033008005C333CE33CED8F9FFE5225EFEE52328
:101043005F4E24FF92A7D2A6C2A60DBD08DBC2A5A0
:01105300227A
:02105400AD07E6
:10105600E4F9430501D2A5FB74017E00A8030880CC
:1010660005C333CE33CED8F9FFEDF582EF55822492
:10107600FF92A7C2A6D2A60BBB08DDE4FBD2A6C28E
:10108600A630A70D7401A803088002C333D8FC421A
:0B109600010BBB08E8C2A5C2A7AF0118
:0110A100222C
:100BC300E4FDFC7F8E120FFDE56375F00A8475F07A
:100BD30010A4FFAEF0E56375F00A84EF7F8C120F6B
:100BE300F7E56475F00A8475F010A4FFAEF0E564D0
:100BF30075F00A847C00EF7F88120FF7E56575F0C6
:100C03000A8475F010A4FFAEF0E56575F00A847CE4
:100C130000EF25F0FDEC3EFC7F86120FFDE56675C7
:100C2300F00A8475F010A4FFAEF0E56675F00A844F
:100C33007C00EF25F0FDEC3EFC7F84120FFDE567A1
:100C430075F00A8475F010A4FFAEF0E56775F00A3D
:100C5300847C00EF25F0FDEC3EFC7F82120FFDE566
:100C63006875F00A8475F010A4FFAEF0E56875F0BE
:100C73000A847C00EF25F0FDEC3EFC7F80120FFD23
:100C8300E56975F00A8475F010A4FFAEF0E56975A7
:100C9300F00A847C00EF25F0FDEC3EFC7F8A120F06
:0A0CA300FD7D807C007F8E020FFDB6
:100D6F007F8C121054EFC4540F75F00AA4FEEF5489
:100D7F000F2EF5637F88121054EFC4540F75F00ACD
:100D8F00A4FEEF540F2EF5647F86121054EFC45457
:100D9F000F75F00AA4FEEF540F2EF5657F84121025
:100DAF0054EFC4540F75F00AA4FEEF540F2EF566DE
:100DBF007F82121054EFC4540F75F00AA4FEEF5443
:100DCF000F2EF5677F80121054EFC4540F75F00A81
:100DDF00A4FEEF540F2EF5687F8A121054EFC454FF
:0C0DEF000F75F00AA4FEEF540F2EF569FA
:010DFB0022D5
:06151300C2958F80D29604
:081519007F027EEFDEFEDFFC25
:0115210022A7
:0A153B00C294121513C2960215198E
:1013C100CFCDCFCECCCE1205D17C007D0A1205D176
:0413D100ED2430FFD8
:0A13D500D294121513C296021519E6
:1014A000AE07BE0104ED148006BE0209ED243F44E0
:0614B00080FF12153B2233
:1014CB007F3812153B7F0C12153B7F0612153B7FA5
:0414DB000102153BBA
:0A154500AC031214A0AF040213D58A
:06135C008B228A23892484
:101362001214A0E4FDAB22AA23A9248D8275830066
:0C137200120580FF60061213D50D80E903
:01137E00224C
:0C11FD007F0AEA24FFFDE434FFFC7E00C2
:081209008E278F288C298D2A05
:101211007F017E00E4FBEBC3952AE5296480F87425
:0E1221008098500AAC27AD281205BF0B80E85C
:01122F00229C
:041438008A248B2552
:10143C001214A0AA26EAD39400400D1211FDAC247C
:08144C00AD251213C11A80ED59
:011454002275
:1010E4001214A0C3EA64809480400B7F2B1213D5A2
:1010F4008A6F8B70800E7F2D1213D5C3E49BF5701D
:10110400E49AF56FAA6EEAD39400400D1211FDAC77
:091114006FAD701213C11A80EDD9
:01111D0022AF
:04111E008A738B74D1
:101122001214A0AA75EAD3940040297F101211FF6D
:10113200AC73AD74CFCDCFCECCCE1205D1EF540F60
:10114200FEC3940AEE5004243080022437FF1213A7
:04115200D51A80D159
:011156002276
:041157008A788B798E
:10115B001214A0AA7AEAD394004028EA24FFFDE4F3
:10116B0034FFFC7F027E00121209AC78AD79CFCD33
:10117B00CFCECCCE1205D1EF54012430FF1213D5B4
:03118B001A80D2F5
:01118E00223E
:1013DF001214DF43878075985053890F4389207506
:0E13EF008BF3758DF3C2ABD28ED2AFD2AC228F
:1014DF005389F0438902758A06758C06C28DC28CBA
:0314EF00D2A9225D
:080003008F993099FDC299228A
:0613A1008B418A428943E2
:1013A700E4FEAB41AA42A9438E82758300120580F1
:0913B700FF60061200030E80E93C
:0113C000220A
:071562007B007A00794F22A3
:03000B0002130DD0
:10130D00C0E0C0D075D000C000054EE54EC394645A
:10131D00400F754E00C28C744F254DF87600754DFB
:08132D0000D000D0D0D0E03266
:0300230002125E68
:10125E00C0E0C0D075D000C000C007309817C2984B
:10126E00754E00758A06758C06D28CAF4D054D7481
:0E127E004F2FF8A699D007D000D0D0D0E03284
:09155900D2A3D2A2C2A3C2A222B5
:07156900C2A3D2A2D2A3220B
:0212E400AD0754
:1012E600E4FB74807E00A803088006CEA2E713CE36
:1012F60013D8F8FFEDF582EF558224FF92A3D2A210
:06130600C2A20BBB08DCD3
:01130C0022BE
:1013FD00E4FFD2A3FED2A230A30D7480A80608800C
:0D140D0002C313D8FC4207C2A20EBE08E8BD
:01141A0022AF
:0A154F00EF24FF92A3D2A2C2A22251
:0B152F00D2A3D2A2A2A3E433FFC2A209
:01153A00228E
:1012B8008F248C258D261215597FA01212E4121541
:1012C8002FE4FF1212E412152FAF241212E41215A4
:0C12D8002FAF261212E412152F02156928
:02118F008F418E
:101191001215597FA01212E412152FE4FF1212E466
:1011A10012152FAF411212E412152F1215597FA1FA
:1011B1001212E412152F1213FD8F427F0112154FE7
:0511C100121569AF42A8
:0111C6002206
:100026000201BCEC5D046005E8590470030201B2EC
:1000360012017D580460F6EC4860F2EC7004FDFE97
:10004600FF22C860DB2481C85009C39860025006AD
:100056000201B99850CAF582E9294B4A7005AB826C
:100066000201A875F0007C1A7880C3EF9BEE9AED2A
:1000760099400DC3EF9BFFEE9AFEED99FDE842F025
:10008600DC23ACF0D0E0FFD0E0FED0E0FDAB822078
:10009600E7101BEB60BAEC2CFCEF33FFEE33FEED02
:1000A60033FD020194E803F830E705C0F075F0006F
:1000B600EF2FFFEE33FEED33FD40B830E7C280AAE6
:1000C60074F8CC6480CCC86480C8F58204604FC3E1
:1000D600EB9FF5F0EA9E42F0E99D42F0E89C45F080
:1000E600603C501DE5825FFFE582D313CB5BCBF40A
:1000F6002B5582FB50280ABA002409B90020088033
:100106001DE5825BFBE582D313CF5FCFF4C3132FCC
:100116005582FF50090EBE00050DBD00010CC3EB54
:100126009FF5F0EA9E42F0E99D42F0E89C45F060BA
:0901360007CC4820E701B3EC22DC
:10013F0075F020800E75F010800575F0087D007E3B
:10014F00007F003392D530D503120626EC334010D2
:10015F00EF33FFEE33FEED33FDEC33FCD5F0ED2244
:0E016F00E5F0247EA2D513CC92E7CDCEFF2280
:10066A00E53B2427F8E6053B227824300702782761
:10067A00E475F0011206340205672000EB7F2ED2E2
:10068A00008018EF540F2490D43440D4FF30040B68
:10069A00EF24BFB41A0050032461FFE53C60021541
:1006AA003C053FE53F7002053E30070D7824E475AE
:1006BA00F001120634EF0205AD0213357403D207B6
:1006CA008003E4C207F53B8B248A258926E4F53C9E
:1006DA00F53EF53FE53C60077F201206A580F575DB
:1006EA003DFFC201C200C202C203C205C206C2085D
:1006FA00120673FF700D3007057F001206B6AF3F72
:10070A00AE3E22B4255FC2D5C204120673FF24D0BE
:10071A00B40A00501A75F00A783C30D50508B6FFBD
:10072A000106C6A426F620D5047002D20380D92475
:10073A00CFB41A00EF5004C2E5D2040209A3D201D1
:10074A0080C6D20080C0D20280BCD2D580BAD2057F
:10075A0080B47F201206A52002077401B53C004030
:10076A00F112066AFF1206A50206DED208D2068038
:10077A009512066AFB12066AFA12066AF94A4B7061
:10078A0006799A7A0A7BFF20022EE53C602A7E00CF
:10079A008E8275830012058060060EEE653D70F04C
:1007AA00C2D5EBC0E0EAC0E0E9C0E0EE120A03D02D
:1007BA00E0F9D0E0FAD0E0FB120567FF60AAEBC0CF
:1007CA00E0EAC0E0E9C0E01206A5D0E02401F9D0D1
:1007DA00E03400FAD0E0FBE53D0460DCD53DD98089
:1007EA0087D20280A21209E660F7E53D7001041281
:1007FA0001C7A93D600DE53D600914F53D120A8D5A
:10080A00EF60F3EA30E702F404C3995077EAF4257B
:10081A003D0430E701E404F53D800D1209E660C1AC
:10082A00EA053D253D1201C7EA783AF630E701E4C8
:10083A00253D04D53D0420050114120A03E4C0E055
:10084A00120A8D783AE6601320E70714F612068D2D
:10085A00802204F6D0E014C0E07F0012068DE53D48
:10086A006007120684153D800B300503120684D0FA
:10087A00E00206DED0E00480C51209E660A0E53D8C
:10088A00041201C7783AEAF6E53D20050260010440
:05089A002404120A0312
:10089F0074FF04C0E0120A8D12068DE53D2005029B
:1008AF006003120684D0E0B53DE87F4512069778C5
:1008BF003AE67F2B30E7047F2DF404C0E01206A543
:1008CF00D0E075F00A84C0F012068ED0E012068ECA
:1008DF000206DE791080027908C206C2088008D2AB
:1008EF00D5790A8004790AC2D5E53D047002F53D39
:1008FF00E4FAFDFEFF12066AFC7B082001131206C4
:10090F006AFD7B1030000A12066AFE12066AFF7B30
:10091F0020EC3382D592D55013C3E43000069FFFED
:10092F00E49EFEE42001039DFDE49CFCE4CBF8C2B1
:10093F0001EC700CCFCECDCCE824F8F870F3801713
:10094F00C3EF33FFEE33FEED33FDEC33FCEB33FB44
:10095F00994002FB0FD8E9EB300105F8D0E0C4480D
:10096F00B201C0E00AEC4D4E4F78207B0070C2EA16
:10097F00B53D0040BCC0E0120A05D0F0D0E0200128
:10098F0004C4C0E0C4B201C0F012068ED0F0D5F09E
:10099F00EB0206DE120644077B5308E258074C4C65
:1009AF0007484208E64F08EE4408EE49076143083E
:1009BF00F45508254608834507EF470ABA500750F4
:1009CF002D07542E07772B0758230775200AA32AC4
:1009DF000710480000076FE53DB4FF03753D061291
:1009EF00066AFC12066AFD12066AFE12066AFF7894
:1009FF00330201F6790AA2D5200314300509B91084
:100A0F00020404B9080104A2D520060250010420F3
:100A1F0002689202B53C005034C0E07F20300319C9
:100A2F007F30A20272067205500F120A5CC202C218
:100A3F0006C205C2087F30800F300503E9C0E012FF
:100A4F0006A5300503D0E0F9D0E0B53CCC30051752
:100A5F007F30B9100C1206A57F583004077F7880BD
:100A6F0003B908031206A53002057F2D0206A57FE4
:100A7F00202008F87F2B2006F322920280CF7F00E0
:100A8F00B4070050052433F8E6FF22286E756C6C0E
:100A9F002900D20112066A3001F8C201783C30D524
:100AAF000108F60207102D5043495812066A240315
:100ABF00B405004001E4900AB593120696743A12F9
:0A0ACF000696D203753C040208E20B
:10017D00E9D2E7C933E833F892D5EDD2E7CD33ECC8
:07018D0033FC5002B2D52241
:10019400EC30E7100FBF000C0EBE00080DBD0004CC
:1001A4000BEB6014A2D5EB13FCED92E7FD2274FF78
:1001B400FCFDFEFF22E480F8A2D574FF13FC7D80D1
:0301C400E480EFE5
:1001C700F920E72824F950037907E4F42402FB18FF
:1001D700DBFDE624FB5014E9600DE4F618E604F6AF
:0F01E700B40A08E4F6D9F57401F60A22C2D5224B
:1001F600ED33EC3392D5FA602AB4FF33EDC2E77BD8
:10020600FF60067A02791BE4227A02792420D5045B
:100216007A02791F224E614E002B494E46002D4927
:100226004E4600E47A08F608DAFC7B00740722E8FA
:10023600C0E0ECC0E0EDC0E0EEC0E0EFC0E0EA7583
:10024600F010A4CAABF075F04DA42BFBE435F0FC1E
:10025600EA2410FAEB34C5FBEC34D9FCEDC2E7FF17
:1002660075F056A4F42411C5F0F434C58FF0A42A11
:10027600E5F03BE43CF620E714120527D0E0FFD07A
:10028600E0FED0E0FDD0E0FC1200298014F4041258
:100296000527D0E0FFD0E0FED0E0FDD0E0FC120361
:1002A600F1D0E0F8E6FAEDD2E7CD33EC332482FB69
:1002B600E4C3CF33CFCE33CECD33CD33DBF37B07A1
:1002C60075F00A846004F6081B0AE5F0F6088FF05C
:1002D600740AA4FFACF08EF0740AA42CFEACF050A5
:1002E600010C8DF0740AA42CFDE435F0F608DBDE73
:0302F60074072268
:1002F9000201B2E86480F8E933E83360110460F080
:10030900ED33EC337009E8FCE9FDEAFEEBFF22046A
:1003190060DED3EB9FEA9EE99DE8C2E78CF0C2F765
:1003290095F0400CE8CCF8E9CDF9EACEFAEBCFFB31
:1003390012017D85D0F05804700320D5B3E804700C
:10034900075002B2D50201BC92D5EC0460F7E4CCA7
:10035900C0E0C398F8603B94186008400DD0E0FBFA
:10036900020194E4FBFAC9FC8028E830E406E4C9F8
:10037900FBE4CAFCE830E305E4C9CACBFCE854074E
:100389006010F8C3E913F9EA13FAEB13FBEC13FC59
:10039900D8F130F52FC3E49CFCEF9BFFEE9AFEEDFC
:1003A90099FDD0E0FBEF4E4D4C701222DB030201A8
:1003B900B9EC2CFCEF33FFEE33FEED33FDED30E706
:1003C900EB020194EF2BFFEE3AFEED39FDD0E0FB95
:1003D90050130BBB00030201BCED13FDEE13FEEF3E
:0803E90013FFEC13FC02019468
:1003F100EC4D6011E8497017ED33EC3304600DE406
:10040100FCFFFEFD22E933E8330470F80201B21269
:10041100017D58046009E4CC24815006285009026A
:1004210001BC2840030201B9C0E0EB4A7044B98025
:1004310006D0E0FB0201A8EF4E701CBD8008EBFF67
:10044100EAFEE9FD80EBE98DF0A4FEE5F00204DAB5
:10045100E9CDF9EAFEEBFFEF89F0A4FCE5F0CE89E6
:10046100F0A42EFFE435F0CD89F0A42DFEE435F0A3
:100471008067EF4E7005BD80D780C3EF8BF0A4ACD1
:10048100F0EE8BF0A42CFCE435F0F8EF8AF0A42C0C
:10049100E5F038FCE433CB8DF0A42CFCE5F03BF81F
:1004A100EE8AF0A42CFCE5F038F8E433CF89F0A40F
:1004B1002CFCE5F038CF3400CE89F0A42FFFE5F015
:1004C1003EFEE433C98DF0A42EFEE5F039CD8AF06D
:1004D100A42FFFE5F03EFEE43DFD33D0E0FB5007E5
:1004E1000BBB000F0201BCEC2CFCEF33FFEE33FE23
:0604F100ED33FD02019451
:1004F7003F8000004120000042C80000447A00000D
:10050700461C400047C35000497424004B1896808E
:100517004CBEBC205A0E1BCA6753C21C749DC5AE85
:10052700FB60065407601C2323120555EB54386003
:10053700091205411205501203F1ECF8EDF9EEFA34
:10054700EFCB22EB12055080F1543803241C9004A2
:10055700F7FE93FC0EEE93FD0EEE930ECE93FF2265
:03000000020DFCF2
:0C0DFC00787FE4F6D8FD75817A020E4382
:10056700BB010689828A83E0225002E722BBFE0292
:09057700E32289828A83E49322C5
:10058000BB010CE58229F582E5833AF583E0225030
:1005900006E92582F8E622BBFE06E92582F8E2227A
:0D05A000E58229F582E5833AF583E4932294
:1005AD00BB010689828A83F0225002F722BBFE012D
:0205BD00F32227
:1005BF00EF8DF0A4A8F0CF8CF0A428CE8DF0A42E50
:0205CF00FE220A
:1005D100BC000BBE0029EF8DF084FFADF022E4CC0E
:1005E100F875F008EF2FFFEE33FEEC33FCEE9DECD7
:1005F100984005FCEE9DFE0FD5F0E9E4CEFD22ED1D
:10060100F8F5F0EE8420D21CFEADF075F008EF2F66
:10061100FFED33FD4007985006D5F0F222C398FD57
:050621000FD5F0EA22F4
:0E062600C3E49FFFE49EFEE49DFDE49CFC22E5
:10063400FAE6FB0808E6F925F0F618E6CA3AF622C7
:10064400D083D082F8E4937012740193700DA3A345
:1006540093F8740193F5828883E473740293686059
:06066400EFA3A3A380DF59
:10133500EFB40A07740D121340740A309811A89976
:10134500B8130CC2983098FDA899C298B811F63018
:0713550099FDC299F59922F0
:1014B600E4FFFE120567600C0FEF70010E09E9707C
:0514C600F20A80EF2294
:100F10008B418A428943AB44AA45A94612056760C2
:100F200063AB41AA42A943120567605F85444785C8
:100F300045488546498B4A8A4B894CAB47AA48A904
:100F400049120567FF6023AB4AAA4BA94C120567FB
:100F50006F7017042549F549E43548F548740125B3
:100F60004CF54CE4354BF54B80D1AB47AA48A94929
:100F70001205677002800D74012543F543E4354284
:100F8000F542809DAB41AA42A943227B007A0079B9
:020F900000223D
:100E08000210A2E493A3F8E493A34003F68001F24E
:100E180008DFF48029E493A3F85407240CC8C333EB
:100E2800C4540F4420C8834004F456800146F6DFBA
:100E3800E4800B010204081020408090137FE47EB8
:100E4800019360BCA3FF543F30E509541FFEE493AF
:100E5800A360010ECF54C025E060A840B8E493A376
:100E6800FAE493A3F8E493A3C8C582C8CAC583CAA1
:100E7800F0A3C8C582C8CAC583CADFE9DEE780BE59
:0113A000004C
:00000001FF
