:100F4F0020203A20203A20200074656D703A252E1B
:100F5F003166002020636F6C6421002020686F745D
:100F6F002100202020202020202020202020202091
:0C0F7F00202000204E6F726D616C21007C
:07116400011300020C000062
:100F080012117512113E1210FD1200037FE87E03C4
:100F18001211297BFF7A0F794FE4FD7F01121046E9
:100F2800120A7C120DFD8F13E513B40115E50B7041
:100F380006750B0112101CE50BB40106E4F50B1243
:070F48000000120BF680DC33
:0F117500121184120FF08F128E118D108C0F2219
:03000B00020F8B56
:090F8B00C0E0C0D075D000C00721
:100F9400758A18758CFC0509E50970020508C39467
:100FA400F4E50894014012750800750900E50E7017
:090FB400047F0180027F008F0E12
:070FBD00D007D0D0D0E032D4
:100BF6001211757525FF75260F75275885122B85D9
:100C0600112A851029850F287B007A00791412068F
:100C1600697B007A007914E4FDFF121046E4FFFEBA
:100C26007D487C42AB12AA11A910A80F1200AE6033
:100C36000840067F01C00780047F00C007E4FFFE6E
:100C46007D207C42AB12AA11A910A80F1200AE504B
:100C5600047E0180027E00D0E04E6058D2A0E4FF00
:100C6600FE7D207C42AB12AA11A910A80F1200AE7D
:100C760050167BFF7A0F79627D09E4FF121046D287
:100C860095750C00750D0122E4FFFE7D487C42AB94
:100C960012AA11A910A80F1200AE6041403F7BFFB7
:100CA6007A0F796A7D09E4FF121046750C00750DFE
:100CB60001C29522E50D6401450C7010F50CF50D89
:100CC6007BFF7A0F79717D09FF1210467BFF7A0F41
:0E0CD60079827D09E4FF121046C2A0C2952269
:10101C00120CE47A00A9417B00E4FD7F011210461A
:10102C007A00A9427B007D037F011210467A00A949
:0A103C00437B007D067F0102104691
:090FC4008F807F02120FCDD2963E
:100FCD00E4FDFCEFFBC3ED9BEC94005015E4FBFA44
:100FDD000BBB00010AEB64704A70F50DBD00010CEE
:020FED0080E1A1
:010FEF0022DF
:0A119100B296C294120FC4C2962257
:0A119B00C296D294120FC4C296222D
:10111400A907E97005ED24808006B90107ED24C014
:05112400FF12119122F1
:101046008B228A238924121114AB22AA23A92412E3
:10105600057160130524E5247002052314F91205B1
:0810660071FF12119B80E222D0
:10113E007F381211917F0C1211917F061211917F3F
:04114E0001021191F8
:0D1184001210B27FCC1210CC7F440210CCB0
:100FF0001210B27FCC1210CC7FBE1210CC12109502
:101000008F22121095EFFEE522FFFDAC06EC1201D7
:0B1010002CE4FBFA79807841120011FB
:01101B0022B2
:10112900EF1FAC0670011E4C600A7D027CEFDCFEED
:04113900DDFC80EC6D
:01113D00228F
:1010B200D2A1C2A17FF7DFFED2A17F20DFFEA2A1D3
:0910C200E433FE7FF7DFFEAF0608
:0110CB002202
:10115200C2A17E04DEFEEF24FF92A17E18DEFED243
:01116200A1EB
:011163002269
:1010E500C2A17F02DFFED2A17F02DFFEA2A1E4330F
:0710F500FE7F18DFFEAF06CD
:0110FC0022D1
:0210CC00AD076E
:1010CE00E4FC7401A804088002C333D8FC5DFF124F
:0610DE0011520CBC08ECED
:0110E40022E9
:10109500E4FDFC1210E5EF600D7401A80408800260
:0C10A500C333D8FC42050CBC08E9AF05C1
:0110B100221C
:09116B00073E130B100C3B370684
:05000300C2B0C2B122F1
:050E5E002DFDEE3CFC3F
:060E63008C228D23AB0779
:100E6900D2B0E4FD74017E00A805088005C333CE25
:100E790033CED8F9FFEBF582EF558224FF92B2D237
:100E8900B1C2B10DBD08DDE4FD74017E00A80508FD
:100E99008005C333CE33CED8F9FFE5225EFEE523C4
:100EA9005F4E24FF92B2D2B1C2B10DBD08DBC2B010
:010EB9002216
:020EBA00AD0782
:100EBC00E4F9430501D2B0FB74017E00A80308805D
:100ECC0005C333CE33CED8F9FFEDF582EF5582242E
:100EDC00FF92B2C2B1D2B10BBB08DDE4FBD2B1C2FE
:100EEC00B130B20D7401A803088002C333D8FC42A0
:0B0EFC00010BBB08E8C2B0C2B2AF019E
:010F070022C7
:100A7C00E4FDFC7F8E120E63E53E75F00A12054F05
:100A8C00FF3395E0FEEFC4F8540FC868FFEEC45472
:100A9C00F048FEE53E75F00A12054FADF0ED3395CA
:100AAC00E0FCEF7F8C120E5EE53F75F00A12054FED
:100ABC00FF3395E0FEEFC4F8540FC868FFEEC45442
:100ACC00F048FEE53F75F00A12054FADF0ED339599
:100ADC00E0FCEF7F88120E5EE54075F00A12054FC0
:100AEC00FF3395E0FEEFC4F8540FC868FFEEC45412
:100AFC00F048FEE54075F00A12054FADF0ED339568
:100B0C00E0FCEF2DFDEE3CFC7F86120E63E541759B
:100B1C00F00A12054FFF3395E0FEEFC4F8540FC8EE
:100B2C0068FFEEC454F048FEE54175F00A12054F1B
:100B3C00ADF0ED3395E0FCEF2DFDEE3CFC7F841227
:100B4C000E63E54275F00A12054FFF3395E0FEEF98
:100B5C00C4F8540FC868FFEEC454F048FEE5427563
:100B6C00F00A12054FADF0ED3395E0FCEF2DFDEEE4
:100B7C003CFC7F82120E63E54375F00A12054FFFB1
:100B8C003395E0FEEFC4F8540FC868FFEEC454F080
:100B9C0048FEE54375F00A12054FADF0ED3395E0D4
:100BAC00FCEF2DFDEE3CFC7F80120E63E54475F0EE
:100BBC000A12054FFF3395E0FEEFC4F8540FC868D6
:100BCC00FFEEC454F048FEE54475F00A12054FAD33
:100BDC00F0ED3395E0FCEF2DFDEE3CFC7F8A120E20
:0A0BEC00637D807C007F8E020E63A3
:100CE4007F8C120EBAEFC4540F75F00AA4FEEF54B1
:100CF4000F2EF53E7F88120EBAEFC4540F75F00A1A
:100D0400A4FEEF540F2EF53F7F86120EBAEFC454A3
:100D14000F75F00AA4FEEF540F2EF5407F84120ED7
:100D2400BAEFC4540F75F00AA4FEEF540F2EF54128
:100D34007F82120EBAEFC4540F75F00AA4FEEF546A
:100D44000F2EF5427F80120EBAEFC4540F75F00ACD
:100D5400A4FEEF540F2EF5437F8A120EBAEFC4544B
:0C0D64000F75F00AA4FEEF540F2EF544AA
:010D70002260
:100DFD00E4F5222090137F14FE1211293091FD7F0E
:100E0D00147E001211297522012091147F147E0089
:100E1D001211293090FD7F147E00121129752202C6
:100E2D002092147F147E001211293092FD7F147EC2
:100E3D00001211297522032093147F147E001211C4
:100E4D00293093FD7F147E00121129752204AF22E3
:010E5D002272
:1010FD005389F0438901758A18758CFCC28DD28C89
:07110D00D2A9D2AFC2B92242
:10000E000201A4EC5D046005E85904700302019A34
:10001E00120165580460F6EC4860F2EC7004FDFEC7
:10002E00FF22C860DB2481C85009C39860025006C5
:10003E000201A19850CAF582E9294B4A7005AB829C
:10004E0002019075F0007C1A7880C3EF9BEE9AED5A
:10005E0099400DC3EF9BFFEE9AFEED99FDE842F03D
:10006E00DC23ACF0D0E0FFD0E0FED0E0FDAB822090
:10007E00E7101BEB60BAEC2CFCEF33FFEE33FEED1A
:10008E0033FD02017CE803F830E705C0F075F0009F
:10009E00EF2FFFEE33FEED33FD40B830E7C280AAFE
:1000AE0074F8CC6480CCC86480C8F58204604FC3F9
:1000BE00EB9FF5F0EA9E42F0E99D42F0E89C45F098
:1000CE00603C501DE5825FFFE582D313CB5BCBF422
:1000DE002B5582FB50280ABA002409B9002008804B
:1000EE001DE5825BFBE582D313CF5FCFF4C3132FE5
:1000FE005582FF50090EBE00050DBD00010CC3EB6D
:10010E009FF5F0EA9E42F0E99D42F0E89C45F060D2
:09011E0007CC4820E701B3EC22F4
:1001270075F020800E75F010800575F0087D007E53
:10013700007F003392D530D5031205C9EC33401048
:10014700EF33FFEE33FEED33FDEC33FCD5F0ED225C
:0E015700E5F0247EA2D513CC92E7CDCEFF2298
:10060D00E5392425F8E605392278223007027825C8
:10061D00E475F0011205D70205712000EB7F2ED293
:10062D00008018EF540F2490D43440D4FF30040BC5
:10063D00EF24BFB41A0050032461FFE53A600215A0
:10064D003A053DE53D7002053C30070D7822E47515
:10065D00F0011205D7EF0205B702106E7403D20731
:10066D008003E4C207F5398B228A238924E4F53A05
:10067D00F53CF53DE53A60077F2012064880F5759B
:10068D003BFFC201C200C202C203C205C206C208BC
:10069D00120616FF700D3007057F00120659AF3D8B
:1006AD00AE3C22B4255FC2D5C204120616FF24D07B
:1006BD00B40A00501A75F00A783A30D50508B6FF1D
:1006CD000106C6A426F620D5047002D20380D924D3
:1006DD00CFB41A00EF5004C2E5D204020946D2018C
:1006ED0080C6D20080C0D20280BCD2D580BAD205DD
:1006FD0080B47F201206482002077401B53A0040ED
:10070D00F112060DFF120648020681D208D20680AC
:10071D009512060DFB12060DFA12060DF94A4B70D5
:10072D0006793D7A0A7BFF20022EE53A602A7E008B
:10073D008E8275830012058A60060EEE653B70F0A1
:10074D00C2D5EBC0E0EAC0E0E9C0E0EE1209A6D0E8
:10075D00E0F9D0E0FAD0E0FB120571FF60AAEBC022
:10076D00E0EAC0E0E9C0E0120648D0E02401F9D08B
:10077D00E03400FAD0E0FBE53B0460DCD53BD980EA
:10078D0087D20280A212098960F7E53B700104123D
:10079D0001AFA93B600DE53B600914F53B120A3032
:1007AD00EF60F3EA30E702F404C3995077EAF425D9
:1007BD003B0430E701E404F53B800D12098960C16B
:1007CD00EA053B253B1201AFEA7838F630E701E444
:1007DD00253B04D53B04200501141209A6E4C0E015
:1007ED00120A307838E6601320E70714F612063047
:1007FD00802204F6D0E014C0E07F00120630E53B05
:10080D006007120627153B800B300503120627D013
:10081D00E0020681D0E00480C512098960A0E53BA5
:10082D00041201AF7838EAF6E53B200502600104B9
:05083D0024041209A6CD
:1008420074FF04C0E0120A30120630E53B200502B4
:100852006003120627D0E0B53BE87F4512063A78DE
:1008620038E67F2B30E7047F2DF404C0E0120648FF
:10087200D0E075F00A84C0F0120631D0E0120631E1
:10088200020681791080027908C206C2088008D265
:10089200D5790A8004790AC2D5E53B047002F53B9A
:1008A200E4FAFDFEFF12060DFC7B0820011312067E
:1008B2000DFD7B1030000A12060DFE12060DFF7BA5
:1008C20020EC3382D592D55013C3E43000069FFF4B
:1008D200E49EFEE42001039DFDE49CFCE4CBF8C20F
:1008E20001EC700CCFCECDCCE824F8F870F3801771
:1008F200C3EF33FFEE33FEED33FDEC33FCEB33FBA2
:10090200994002FB0FD8E9EB300105F8D0E0C4486A
:10091200B201C0E00AEC4D4E4F78207B0070C2EA73
:10092200B53B0040BCC0E01209A8D0F0D0E02001E5
:1009320004C4C0E0C4B201C0F0120631D0F0D5F058
:10094200EB0206811205E7071E5308855806EF4C95
:1009520006EB4208894F089144089149070443086D
:10096200975507C8460826450792470A5D5006F381
:100972002D06F72E071A2B06FB230718200A462AF4
:1009820006B34800000712E53BB4FF03753B0612AD
:10099200060DFC12060DFD12060DFE12060DFF7865
:1009A200310201DE790AA2D5200314300509B910FB
:1009B200020404B9080104A2D52006025001042051
:1009C20002689202B53A005034C0E07F2030031929
:1009D2007F30A20272067205500F1209FFC202C2D4
:1009E20006C205C2087F30800F300503E9C0E0125D
:1009F2000648300503D0E0F9D0E0B53ACC3005170F
:100A02007F30B9100C1206487F583004077F788077
:100A120003B908031206483002057F2D0206487FFB
:100A2200202008F87F2B2006F322920280CF7F003D
:100A3200B4070050052431F8E6FF22286E756C6C6D
:100A42002900D20112060D3001F8C201783A30D5E0
:100A52000108F60206B32D5043495812060D24032D
:100A6200B405004001E4900A5893120639743A1210
:0A0A72000639D203753A0402088524
:10016500E9D2E7C933E833F892D5EDD2E7CD33ECE0
:0701750033FC5002B2D52259
:10017C00EC30E7100FBF000C0EBE00080DBD0004E4
:10018C000BEB6014A2D5EB13FCED92E7FD2274FF90
:10019C00FCFDFEFF22E480F8A2D574FF13FC7D80E9
:0301AC00E480EFFD
:1001AF00F920E72824F950037907E4F42402FB1817
:1001BF00DBFDE624FB5014E9600DE4F618E604F6C7
:0F01CF00B40A08E4F6D9F57401F60A22C2D52263
:1001DE00ED33EC3392D5FA602AB4FF33EDC2E77BF0
:1001EE00FF60067A027903E4227A02790C20D504A4
:1001FE007A027907224E614E002B494E46002D4958
:10020E004E4600E47A08F608DAFC7B00740722E812
:10021E00C0E0ECC0E0EDC0E0EEC0E0EFC0E0EA759B
:10022E00F010A4CAABF075F04DA42BFBE435F0FC36
:10023E00EA2410FAEB34C5FBEC34D9FCEDC2E7FF2F
:10024E0075F056A4F42411C5F0F434C58FF0A42A29
:10025E00E5F03BE43CF620E71412050FD0E0FFD0AA
:10026E00E0FED0E0FDD0E0FC1200118014F4041288
:10027E00050FD0E0FFD0E0FED0E0FDD0E0FC120391
:10028E00D9D0E0F8E6FAEDD2E7CD33EC332482FB99
:10029E00E4C3CF33CFCE33CECD33CD33DBF37B07B9
:1002AE0075F00A846004F6081B0AE5F0F6088FF074
:1002BE00740AA4FFACF08EF0740AA42CFEACF050BD
:1002CE00010C8DF0740AA42CFDE435F0F608DBDE8B
:0302DE0074072280
:1002E10002019AE86480F8E933E83360110460F0B0
:1002F100ED33EC337009E8FCE9FDEAFEEBFF220483
:1003010060DED3EB9FEA9EE99DE8C2E78CF0C2F77D
:1003110095F0400CE8CCF8E9CDF9EACEFAEBCFFB49
:1003210012016585D0F05804700320D5B3E804703C
:10033100075002B2D50201A492D5EC0460F7E4CCD7
:10034100C0E0C398F8603B94186008400DD0E0FB12
:1003510002017CE4FBFAC9FC8028E830E406E4C928
:10036100FBE4CAFCE830E305E4C9CACBFCE8540766
:100371006010F8C3E913F9EA13FAEB13FBEC13FC71
:10038100D8F130F52FC3E49CFCEF9BFFEE9AFEED14
:1003910099FDD0E0FBEF4E4D4C701222DB030201C0
:1003A100A1EC2CFCEF33FFEE33FEED33FDED30E736
:1003B100EB02017CEF2BFFEE3AFEED39FDD0E0FBC5
:1003C10050130BBB00030201A4ED13FDEE13FEEF6E
:0803D10013FFEC13FC02017C98
:1003D900EC4D6011E8497017ED33EC3304600DE41E
:1003E900FCFFFEFD22E933E8330470F802019A129A
:1003F900016558046009E4CC24815006285009029B
:1004090001A42840030201A1C0E0EB4A7044B9806D
:1004190006D0E0FB020190EF4E701CBD8008EBFF97
:10042900EAFEE9FD80EBE98DF0A4FEE5F00204C2E5
:10043900E9CDF9EAFEEBFFEF89F0A4FCE5F0CE89FE
:10044900F0A42EFFE435F0CD89F0A42DFEE435F0BB
:100459008067EF4E7005BD80D780C3EF8BF0A4ACE9
:10046900F0EE8BF0A42CFCE435F0F8EF8AF0A42C24
:10047900E5F038FCE433CB8DF0A42CFCE5F03BF837
:10048900EE8AF0A42CFCE5F038F8E433CF89F0A427
:100499002CFCE5F038CF3400CE89F0A42FFFE5F02D
:1004A9003EFEE433C98DF0A42EFEE5F039CD8AF085
:1004B900A42FFFE5F03EFEE43DFD33D0E0FB5007FD
:1004C9000BBB000F0201A4EC2CFCEF33FFEE33FE53
:0604D900ED33FD02017C81
:1004DF003F8000004120000042C80000447A000025
:1004EF00461C400047C35000497424004B189680A7
:1004FF004CBEBC205A0E1BCA6753C21C749DC5AE9E
:10050F00FB60065407601C232312053DEB54386033
:10051F00091205291205381203D9ECF8EDF9EEFA94
:10052F00EFCB22EB12053880F1543803241C9004D2
:10053F00DFFE93FC0EEE93FD0EEE930ECE93FF2295
:03000000020D717D
:0C0D7100787FE4F6D8FD758144020DB8CF
:10054F00C2D530F707B2D563F0FF05F030E70CB234
:10055F00D5F4048463F0FF05F080018430D502F4F4
:02056F00042264
:10057100BB010689828A83E0225002E722BBFE0288
:09058100E32289828A83E49322BB
:10058A00BB010CE58229F582E5833AF583E0225026
:10059A0006E92582F8E622BBFE06E92582F8E22270
:0D05AA00E58229F582E5833AF583E493228A
:1005B700BB010689828A83F0225002F722BBFE0123
:0205C700F3221D
:0E05C900C3E49FFFE49EFEE49DFDE49CFC2243
:1005D700FAE6FB0808E6F925F0F618E6CA3AF62225
:1005E700D083D082F8E4937012740193700DA3A3A3
:1005F70093F8740193F5828883E4737402936860B7
:06060700EFA3A3A380DFB6
:10106E00EFB40A07740D121079740A309811A8990A
:10107E00B8130CC2983098FDA899C298B811F630E2
:07108E0099FDC299F59922BA
:100D7D00020F08E493A3F8E493A34003F68001F275
:100D8D0008DFF48029E493A3F85407240CC8C33377
:100D9D00C4540F4420C8834004F456800146F6DF46
:100DAD00E4800B0102040810204080901164E47E61
:100DBD00019360BCA3FF543F30E509541FFEE4933B
:100DCD00A360010ECF54C025E060A840B8E493A302
:100DDD00FAE493A3F8E493A3C8C582C8CAC583CA2D
:100DED00F0A3C8C582C8CAC583CADFE9DEE780BEE5
:01117400007A
:00000001FF
