:100E4C0020203A20203A20200074656D703A252E1F
:100E5C003166002020636F6C6421002020686F7461
:100E6C002100202020202020202020202020202095
:100E7C00202000204E6F726D616C21002530326491
:0B0E8C003A253032643A253032640011
:07106300013B000234000014
:100EEF0012107412103D120FFC1210A47FE87E0333
:100EFF001210287BFF7A0E794CE4FD7F01120F450B
:0B0F0F00120B3D120F1A120A4F80F85F
:0F107400121083120EC38F3A8E398D388C3722AB
:100A4F001210747549FF754A0E754B55853A4F85CF
:100A5F00394E85384D85374C7B007A00793C12062C
:100A6F003C7B007A00793CE4FDFF120F45E4FFFE6A
:100A7F007D487C42AB3AAA39A938A8371200A36047
:100A8F000840067F01C00780047F00C007E4FFFE17
:100A9F007D207C42AB3AAA39A938A8371200A3505F
:100AAF00047E0180027E00D0E04E6058D2A0E4FFA9
:100ABF00FE7D207C42AB3AAA39A938A8371200A391
:100ACF0050167BFF7A0E795F7D09E4FF120F45D236
:100ADF009575340075350122E4FFFE7D487C42ABED
:100AEF003AAA39A938A8371200A36041403F7BFFCB
:100AFF007A0E79677D09E4FF120F4575340075355D
:100B0F0001C29522E535640145347010F534F53591
:100B1F007BFF7A0E796E7D09FF120F457BFF7A0EF0
:0E0B2F00797F7D09E4FF120F45C2A0C2952216
:100F1A00120C277549FF754A0E754B88850B4C854F
:100F2A000C4D850D4E7B007A00792212063C7B001F
:0B0F3A007A007922E4FD7F01020F45E0
:090E97008F807F02120EA0D2969A
:100EA000E4FDFCEFFBC3ED9BEC94005015E4FBFA72
:100EB0000BBB00010AEB64704A70F50DBD00010C1C
:020EC00080E1CF
:010EC200220D
:0A109000B296C294120E97C2962287
:0A109A00C296D294120E97C296225D
:10101300A907E97005ED24808006B90107ED24C016
:05102300FF12109022F5
:100F45008B468A478948121013AB46AA47A948120F
:100F5500054460130548E5487002054714F9120574
:080F650044FF12109A80E22201
:10103D007F381210907F0C1210907F061210907F47
:04104D0001021090FC
:0D108300120FB17FCC120FCB7F44020FCBB8
:100EC300120FB17FCC120FCB7FBE120FCB120F9438
:100ED3008F46120F94EFFEE546FFFDAC06EC1201C0
:0B0EE30021E4FBFA7980784112000640
:010EEE0022E1
:10102800EF1FAC0670011E4C600A7D027CEFDCFEEF
:04103800DDFC80EC6F
:01103C002291
:100FB100D2A1C2A17FF7DFFED2A17F20DFFEA2A1D5
:090FC100E433FE7FF7DFFEAF060A
:010FCA002204
:10105100C2A17E04DEFEEF24FF92A17E18DEFED245
:01106100A1ED
:01106200226B
:100FE400C2A17F02DFFED2A17F02DFFEA2A1E43311
:070FF400FE7F18DFFEAF06CF
:010FFB0022D3
:020FCB00AD0770
:100FCD00E4FC7401A804088002C333D8FC5DFF1251
:060FDD0010510CBC08ECF1
:010FE30022EB
:100F9400E4FDFC120FE4EF600D7401A80408800264
:0C0FA400C333D8FC42050CBC08E9AF05C3
:010FB000221E
:09106A000708130B100C3B3706BC
:0510A400C2B0C2B12240
:060DA10025F0FDEC3EFC14
:060DA7008C468D47AB07EE
:100DAD00D2B0E4FD74017E00A805088005C333CEE2
:100DBD0033CED8F9FFEBF582EF558224FF92B2D2F4
:100DCD00B1C2B10DBD08DDE4FD74017E00A80508BA
:100DDD008005C333CE33CED8F9FFE5465EFEE54739
:100DED005F4E24FF92B2D2B1C2B10DBD08DBC2B0CD
:010DFD0022D3
:020DFE00AD073F
:100E0000E4F9430501D2B0FB74017E00A803088019
:100E100005C333CE33CED8F9FFEDF582EF558224EA
:100E2000FF92B2C2B1D2B10BBB08DDE4FBD2B1C2BA
:100E3000B130B20D7401A803088002C333D8FC425C
:0B0E4000010BBB08E8C2B0C2B2AF015A
:010E4B002284
:100B3D00E4FDFC7F8E120DA7E50875F00A8475F0B3
:100B4D0010A4FFAEF0E50875F00A84EF7F8C120D4E
:100B5D00A1E50975F00A8475F010A4FFAEF0E50962
:100B6D0075F00A847C00EF7F88120DA1E50A75F0FF
:100B7D000A8475F010A4FFAEF0E50A75F00A847CC6
:100B8D0000EF25F0FDEC3EFC7F86120DA7E50B7501
:100B9D00F00A8475F010A4FFAEF0E50B75F00A8431
:100BAD007C00EF25F0FDEC3EFC7F84120DA7E50CDB
:100BBD0075F00A8475F010A4FFAEF0E50C75F00A1F
:100BCD00847C00EF25F0FDEC3EFC7F82120DA7E545
:100BDD000D75F00A8475F010A4FFAEF0E50D75F0FB
:100BED000A847C00EF25F0FDEC3EFC7F80120DA702
:100BFD00E50E75F00A8475F010A4FFAEF0E50E75E4
:100C0D00F00A847C00EF25F0FDEC3EFC7F8A120D8E
:0A0C1D00A77D807C007F8E020DA7EA
:100C27007F8C120DFEEFC4540F75F00AA4FEEF542B
:100C37000F2EF5087F88120DFEEFC4540F75F00ACA
:100C4700A4FEEF540F2EF5097F86120DFEEFC45454
:100C57000F75F00AA4FEEF540F2EF50A7F84120DCC
:100C6700FEEFC4540F75F00AA4FEEF540F2EF50BD8
:100C77007F82120DFEEFC4540F75F00AA4FEEF54E5
:100C87000F2EF50C7F80120DFEEFC4540F75F00A7E
:100C9700A4FEEF540F2EF50D7F8A120DFEEFC454FC
:0C0CA7000F75F00AA4FEEF540F2EF50E9E
:010CB300221E
:100D4000E4F50F2090137F14FE1210283091FD7FE0
:100D5000147E00121028750F012091147F147E005C
:100D60001210283090FD7F147E00121028750F029B
:100D70002092147F147E001210283092FD7F147E82
:100D800000121028750F032093147F147E00121098
:100D9000283093FD7F147E00121028750F04AF0FCA
:010DA0002230
:100FFC005389F0438901758A18758CFCC28DD28C8B
:07100C00D2A9D2AFC2B92244
:10000300020199EC5D046005E85904700302018F55
:1000130012015A580460F6EC4860F2EC7004FDFEDD
:10002300FF22C860DB2481C85009C39860025006D0
:100033000201969850CAF582E9294B4A7005AB82B2
:1000430002018575F0007C1A7880C3EF9BEE9AED70
:1000530099400DC3EF9BFFEE9AFEED99FDE842F048
:10006300DC23ACF0D0E0FFD0E0FED0E0FDAB82209B
:10007300E7101BEB60BAEC2CFCEF33FFEE33FEED25
:1000830033FD020171E803F830E705C0F075F000B5
:10009300EF2FFFEE33FEED33FD40B830E7C280AA09
:1000A30074F8CC6480CCC86480C8F58204604FC304
:1000B300EB9FF5F0EA9E42F0E99D42F0E89C45F0A3
:1000C300603C501DE5825FFFE582D313CB5BCBF42D
:1000D3002B5582FB50280ABA002409B90020088056
:1000E3001DE5825BFBE582D313CF5FCFF4C3132FF0
:1000F3005582FF50090EBE00050DBD00010CC3EB78
:100103009FF5F0EA9E42F0E99D42F0E89C45F060DD
:0901130007CC4820E701B3EC22FF
:10011C0075F020800E75F010800575F0087D007E5E
:10012C00007F003392D530D50312059CEC33401080
:10013C00EF33FFEE33FEED33FDEC33FCD5F0ED2267
:0E014C00E5F0247EA2D513CC92E7CDCEFF22A3
:1005E000E55D2449F8E6055D227846300702784942
:1005F000E475F0011205AA0205442000EB7F2ED21B
:10060000008018EF540F2490D43440D4FF30040BF2
:10061000EF24BFB41A0050032461FFE55E600215A9
:100620005E0561E5617002056030070D7846E4758E
:10063000F0011205AAEF02058A020F6D7403D207BA
:100640008003E4C207F55D8B468A478948E4F55E7E
:10065000F560F561E55E60077F2012061B80F57589
:100660005FFFC201C200C202C203C205C206C208C5
:100670001205E9FF700D3007057F0012062CAF61EF
:10068000AE6022B4255FC2D5C2041205E9FF24D0B2
:10069000B40A00501A75F00A785E30D50508B6FF26
:1006A0000106C6A426F620D5047002D20380D92400
:1006B000CFB41A00EF5004C2E5D204020919D201E6
:1006C00080C6D20080C0D20280BCD2D580BAD2050A
:1006D00080B47F2012061B2002077401B55E004023
:1006E000F11205E0FF12061B020654D208D2068062
:1006F000951205E0FB1205E0FA1205E0F94A4B708D
:100700000679107A0A7BFF20022EE55E602A7E00C1
:100710008E8275830012055D60060EEE655F70F0D7
:10072000C2D5EBC0E0EAC0E0E9C0E0EE120979D042
:10073000E0F9D0E0FAD0E0FB120544FF60AAEBC07C
:10074000E0EAC0E0E9C0E012061BD0E02401F9D0E5
:10075000E03400FAD0E0FBE55F0460DCD55FD980CF
:1007600087D20280A212095C60F7E55F7001041273
:1007700001A4A95F600DE55F600914F55F120A032B
:10078000EF60F3EA30E702F404C3995077EAF42506
:100790005F0430E701E404F55F800D12095C60C17D
:1007A000EA055F255F1201A4EA785CF630E701E410
:1007B000255F04D55F0420050114120979E4C0E027
:1007C000120A03785CE6601320E70714F6120603AA
:1007D000802204F6D0E014C0E07F00120603E55F3B
:1007E00060071205FA155F800B3005031205FAD079
:1007F000E0020654D0E00480C512095C60A0E55F09
:10080000041201A4785CEAF6E55F200502600104A9
:05081000240412097927
:1008150074FF04C0E0120A03120603E55F20050217
:1008250060031205FAD0E0B55FE87F4512060D7842
:100835005CE67F2B30E7047F2DF404C0E012061B35
:10084500D0E075F00A84C0F0120604D0E012060468
:10085500020654791080027908C206C2088008D2BF
:10086500D5790A8004790AC2D5E55F047002F55F7F
:10087500E4FAFDFEFF1205E0FC7B082001131205DA
:10088500E0FD7B1030000A1205E0FE1205E0FF7B5B
:1008950020EC3382D592D55013C3E43000069FFF78
:1008A500E49EFEE42001039DFDE49CFCE4CBF8C23C
:1008B50001EC700CCFCECDCCE824F8F870F380179E
:1008C500C3EF33FFEE33FEED33FDEC33FCEB33FBCF
:1008D500994002FB0FD8E9EB300105F8D0E0C44898
:1008E500B201C0E00AEC4D4E4F78207B0070C2EAA1
:1008F500B55F0040BCC0E012097BD0F0D0E020011C
:1009050004C4C0E0C4B201C0F0120604D0F0D5F0B2
:10091500EB0206541205BA06F15308585806C24CA4
:1009250006BE42085C4F08644408644906D743087C
:100935006A55079B4607F9450765470A305006C6BD
:100945002D06CA2E06ED2B06CE2306EB200A192A04
:10095500068648000006E5E55FB4FF03755F0612ED
:1009650005E0FC1205E0FD1205E0FE1205E0FF784A
:10097500550201D3790AA2D5200314300509B9100F
:10098500020404B9080104A2D5200602500104207E
:1009950002689202B55E005034C0E07F2030031932
:1009A5007F30A20272067205500F1209D2C202C22E
:1009B50006C205C2087F30800F300503E9C0E0128A
:1009C500061B300503D0E0F9D0E0B55ECC30051745
:1009D5007F30B9100C12061B7F583004077F7880D2
:1009E50003B9080312061B3002057F2D02061B7F83
:1009F500202008F87F2B2006F322920280CF7F006B
:100A0500B4070050052455F8E6FF22286E756C6C76
:100A15002900D2011205E03001F8C201785E30D517
:100A25000108F60206862D504349581205E02403B5
:100A3500B405004001E4900A2B9312060C743A1297
:0A0A4500060CD203755E0402085887
:10015A00E9D2E7C933E833F892D5EDD2E7CD33ECEB
:07016A0033FC5002B2D52264
:10017100EC30E7100FBF000C0EBE00080DBD0004EF
:100181000BEB6014A2D5EB13FCED92E7FD2274FF9B
:10019100FCFDFEFF22E480F8A2D574FF13FC7D80F4
:0301A100E480EF08
:1001A400F920E72824F950037907E4F42402FB1822
:1001B400DBFDE624FB5014E9600DE4F618E604F6D2
:0F01C400B40A08E4F6D9F57401F60A22C2D5226E
:1001D300ED33EC3392D5FA602AB4FF33EDC2E77BFB
:1001E300FF60067A0179F8E4227A02790120D504C6
:1001F3007A0179FC224E614E002B494E46002D496F
:100203004E4600E47A08F608DAFC7B00740722E81D
:10021300C0E0ECC0E0EDC0E0EEC0E0EFC0E0EA75A6
:10022300F010A4CAABF075F04DA42BFBE435F0FC41
:10023300EA2410FAEB34C5FBEC34D9FCEDC2E7FF3A
:1002430075F056A4F42411C5F0F434C58FF0A42A34
:10025300E5F03BE43CF620E714120504D0E0FFD0C0
:10026300E0FED0E0FDD0E0FC1200068014F404129E
:100273000504D0E0FFD0E0FED0E0FDD0E0FC1203A7
:10028300CED0E0F8E6FAEDD2E7CD33EC332482FBAF
:10029300E4C3CF33CFCE33CECD33CD33DBF37B07C4
:1002A30075F00A846004F6081B0AE5F0F6088FF07F
:1002B300740AA4FFACF08EF0740AA42CFEACF050C8
:1002C300010C8DF0740AA42CFDE435F0F608DBDE96
:0302D3007407228B
:1002D60002018FE86480F8E933E83360110460F0C6
:1002E600ED33EC337009E8FCE9FDEAFEEBFF22048E
:1002F60060DED3EB9FEA9EE99DE8C2E78CF0C2F789
:1003060095F0400CE8CCF8E9CDF9EACEFAEBCFFB54
:1003160012015A85D0F05804700320D5B3E8047052
:10032600075002B2D502019992D5EC0460F7E4CCED
:10033600C0E0C398F8603B94186008400DD0E0FB1D
:10034600020171E4FBFAC9FC8028E830E406E4C93E
:10035600FBE4CAFCE830E305E4C9CACBFCE8540771
:100366006010F8C3E913F9EA13FAEB13FBEC13FC7C
:10037600D8F130F52FC3E49CFCEF9BFFEE9AFEED1F
:1003860099FDD0E0FBEF4E4D4C701222DB030201CB
:1003960096EC2CFCEF33FFEE33FEED33FDED30E74C
:1003A600EB020171EF2BFFEE3AFEED39FDD0E0FBDB
:1003B60050130BBB0003020199ED13FDEE13FEEF84
:0803C60013FFEC13FC020171AE
:1003CE00EC4D6011E8497017ED33EC3304600DE429
:1003DE00FCFFFEFD22E933E8330470F802018F12B0
:1003EE00015A58046009E4CC2481500628500902B1
:1003FE000199284003020196C0E0EB4A7044B9808F
:10040E0006D0E0FB020185EF4E701CBD8008EBFFAD
:10041E00EAFEE9FD80EBE98DF0A4FEE5F00204B7FB
:10042E00E9CDF9EAFEEBFFEF89F0A4FCE5F0CE8909
:10043E00F0A42EFFE435F0CD89F0A42DFEE435F0C6
:10044E008067EF4E7005BD80D780C3EF8BF0A4ACF4
:10045E00F0EE8BF0A42CFCE435F0F8EF8AF0A42C2F
:10046E00E5F038FCE433CB8DF0A42CFCE5F03BF842
:10047E00EE8AF0A42CFCE5F038F8E433CF89F0A432
:10048E002CFCE5F038CF3400CE89F0A42FFFE5F038
:10049E003EFEE433C98DF0A42EFEE5F039CD8AF090
:1004AE00A42FFFE5F03EFEE43DFD33D0E0FB500708
:1004BE000BBB000F020199EC2CFCEF33FFEE33FE69
:0604CE00ED33FD02017197
:1004D4003F8000004120000042C80000447A000030
:1004E400461C400047C35000497424004B189680B2
:1004F4004CBEBC205A0E1BCA6753C21C749DC5AEA9
:10050400FB60065407601C2323120532EB54386049
:100514000912051E12052D1203CEECF8EDF9EEFAC0
:10052400EFCB22EB12052D80F1543803241C9004E8
:10053400D4FE93FC0EEE93FD0EEE930ECE93FF22AB
:03000000020CB43B
:0C0CB400787FE4F6D8FD758161020CFB2E
:10054400BB010689828A83E0225002E722BBFE02B5
:09055400E32289828A83E49322E8
:10055D00BB010CE58229F582E5833AF583E0225053
:10056D0006E92582F8E622BBFE06E92582F8E2229D
:0D057D00E58229F582E5833AF583E49322B7
:10058A00BB010689828A83F0225002F722BBFE0150
:02059A00F3224A
:0E059C00C3E49FFFE49EFEE49DFDE49CFC2270
:1005AA00FAE6FB0808E6F925F0F618E6CA3AF62252
:1005BA00D083D082F8E4937012740193700DA3A3D0
:1005CA0093F8740193F5828883E4737402936860E4
:0605DA00EFA3A3A380DFE4
:100F6D00EFB40A07740D120F78740A309811A8990E
:100F7D00B8130CC2983098FDA899C298B811F630E4
:070F8D0099FDC299F59922BC
:100CC000020EEFE493A3F8E493A34003F68001F24D
:100CD00008DFF48029E493A3F85407240CC8C33335
:100CE000C4540F4420C8834004F456800146F6DF04
:100CF000E4800B0102040810204080901063E47E21
:100D0000019360BCA3FF543F30E509541FFEE493F8
:100D1000A360010ECF54C025E060A840B8E493A3BF
:100D2000FAE493A3F8E493A3C8C582C8CAC583CAEA
:100D3000F0A3C8C582C8CAC583CADFE9DEE780BEA2
:01107300007C
:00000001FF
