:100F210020203A20203A2020003132330074656DB0
:100F3100703A252E3166002020636F6C64210020F9
:100F410020686F74210020202020202020202020D4
:100F510020202020202000204E6F726D616C210026
:080F610074656D703A25730000
:10000300046800000000035C000000015B00016362
:0400130000015F0089
:1011750012133512130F12139A120BE57BFF7A0F18
:1011850079217D017F021211C3121059120AFB1237
:0711950010F2120F6980F255
:100F69007540FF75410F75422AE4F53FAB40AA4130
:100F7900A942853F82758300120580FD6010AF3F4D
:100F89001211E67F057E001212FA053F80DEE4F5B4
:100F99003FAF3F1210C28F44E4F545053FE53FD30B
:040FA900940540ED7E
:010FAD002221
:0F1335001213531211208F678E668D658C642200
:1010F200D3E50B6480948750047F0180027F00C394
:10110200E50B6480949640047E0180027E00EE4FDF
:0E1112006008C297C2A0755F0122E4F55F225B
:100AFB001213357542FF75430F75442E8567488574
:100B0B0066478565468564457B007A00796C1206DD
:100B1B00E87B007A00796CE4FD7F011211C3E4FFDE
:100B2B00FE7D487C42AB67AA66A965A8641200C625
:100B3B00600840067F01C00780047F00C007E4FF08
:100B4B00FE7D207C42AB67AA66A965A8641200C62D
:100B5B0050047E0180027E00D0E04E6056E55F704F
:100B6B0002D2A0E4FFFE7D207C42AB67AA66A9659A
:100B7B00A8641200C650137BFF7A0F79387D097F6A
:100B8B00011211C3D29775630122E4FFFE7D487CED
:100B9B0042AB67AA66A965A8641200C6603B4039E0
:100BAB007BFF7A0F79407D097F011211C3756301B9
:100BBB00C29722E563B40110E4F5637BFF7A0F79EA
:100BCB00477D097F011211C37BFF7A0F79587D098D
:0A0BDB007F011211C3C2A0C29722CD
:10105900120D5DE50BFB3395E0FA7543027D017FC7
:1010690002121261E50CFB3395E0FA7543027D0427
:101079007F02121261E50DFB3395E0FA7543027D9B
:06108900077F0202126164
:03002300020CCFFD
:100CCF00C0E0C0F0C083C082C0D075D000C000C0EB
:0D0CDF0001C002C003C004C005C006C0076C
:100CEC00309853C298AF99EF640AAB60AA61A962BD
:100CFC00600FAE5B055B8E82758300EF1205BF80C3
:100D0C0035855B82758300E41205BF7542FF754320
:100D1C000F7544618560458561468562477BFF7A26
:100D2C000A79FB1206E87BFF7A0A79FB7D097F01C1
:060D3C001211C3755B00FB
:100D4200D007D006D005D004D003D002D001D00005
:0B0D5200D0D0D082D083D0F0D0E032AF
:0D1353001212997FCC1212B37F440212B324
:101120001212997FCC1212B37FBE1212B312124464
:101130008F3F121244EFFEE53FFFFDAC06EC1201BB
:0B11400044E4FBFA798078411200299A
:01114B002281
:1012FA00EF1FAC0670011E4C600A7D027CEFDCFE1B
:04130A00DDFC80EC9A
:01130E0022BC
:10129900D2A1C2A17FF7DFFED2A17F20DFFEA2A1EA
:0912A900E433FE7FF7DFFEAF061F
:0112B2002219
:10132300C2A17E04DEFEEF24FF92A17E18DEFED270
:01133300A118
:011334002296
:1012CC00C2A17F02DFFED2A17F02DFFEA2A1E43326
:0712DC00FE7F18DFFEAF06E4
:0112E30022E8
:0212B300AD0785
:1012B500E4FC7401A804088002C333D8FC5DFF1266
:0612C50013230CBC08EC31
:0112CB002200
:10124400E4FDFC1212CCEF600D7401A804088002C6
:0C125400C333D8FC42050CBC08E9AF0510
:01126000226B
:090017000708130B100C3B000656
:05139A00C2A5C2A6225D
:060E760025F0FDEC3EFC3E
:060E7C008C3F8D40AB0726
:100E8200D2A5E4FD74017E00A805088005C333CE17
:100E920033CED8F9FFEBF582EF558224FF92A7D229
:100EA200A6C2A60DBD08DDE4FD74017E00A80508FA
:100EB2008005C333CE33CED8F9FFE53F5EFEE54071
:100EC2005F4E24FF92A7D2A6C2A60DBD08DBC2A523
:010ED20022FD
:020ED300AD0769
:100ED500E4F9430501D2A5FB74017E00A80308804F
:100EE50005C333CE33CED8F9FFEDF582EF55822415
:100EF500FF92A7C2A6D2A60BBB08DDE4FBD2A6C211
:100F0500A630A70D7401A803088002C333D8FC429C
:0B0F1500010BBB08E8C2A5C2A7AF019A
:010F200022AE
:100BE500E4FDFC7F8E120E7CE50875F00A8475F035
:100BF50010A4FFAEF0E50875F00A84EF7F8C120EA5
:100C050076E50975F00A8475F010A4FFAEF0E509E4
:100C150075F00A847C00EF7F88120E76E50A75F080
:100C25000A8475F010A4FFAEF0E50A75F00A847C1D
:100C350000EF25F0FDEC3EFC7F86120E7CE50B7582
:100C4500F00A8475F010A4FFAEF0E50B75F00A8488
:100C55007C00EF25F0FDEC3EFC7F84120E7CE50C5C
:100C650075F00A8475F010A4FFAEF0E50C75F00A76
:100C7500847C00EF25F0FDEC3EFC7F82120E7CE5C6
:100C85000D75F00A8475F010A4FFAEF0E50D75F052
:100C95000A847C00EF25F0FDEC3EFC7F80120E7C83
:100CA500E50E75F00A8475F010A4FFAEF0E50E753B
:100CB500F00A847C00EF25F0FDEC3EFC7F8A120EE5
:0A0CC5007C7D807C007F8E020E7C97
:100D5D007F8C120ED3EFC4540F75F00AA4FEEF541E
:100D6D000F2EF5087F88120ED3EFC4540F75F00ABD
:100D7D00A4FEEF540F2EF5097F86120ED3EFC45447
:100D8D000F75F00AA4FEEF540F2EF50A7F84120E94
:100D9D00D3EFC4540F75F00AA4FEEF540F2EF50BCC
:100DAD007F82120ED3EFC4540F75F00AA4FEEF54D8
:100DBD000F2EF50C7F80120ED3EFC4540F75F00A71
:100DCD00A4FEEF540F2EF50D7F8A120ED3EFC454EF
:0C0DDD000F75F00AA4FEEF540F2EF50E67
:010DE90022E7
:06134400C2958F80D296D5
:08134A007F027EEFDEFEDFFCF6
:011352002278
:0A136C00C294121344C29602134A01
:10120800CFCDCFCECCCE1205F37C007D0A1205F3EC
:04121800ED2430FF92
:0A121C00D294121344C29602134A42
:1012E400AE07BE0104ED148006BE0209ED243F449E
:0612F40080FF12136C22C2
:10130F007F3812136C7F0C12136C7F0612136C7FD5
:04131F000102136C48
:0A137600AC031212E4AF0402121CD3
:0611C3008B3F8A408941C8
:1011C9001212E4E4FDAB3FAA40A9418D8275830068
:0C11D900120580FF600612121C0D80E958
:0111E50022E7
:0C108F007F0AEA24FFFDE434FFFC7E0031
:08109B008E448F458C468D4701
:1010A3007F017E00E4FBEBC39547E5466480F8745B
:0E10B3008098500AAC44AD451205E10B80E870
:0110C100220C
:041261008A418B42F1
:101265001212E4AA43EAD39400400D12108FAC4148
:08127500AD421212081A80EDCF
:01127D00224E
:100FAE001212E4C3EA64809480400B7F2B12121C51
:100FBE008A148B15800E7F2D12121CC3E49BF5151F
:100FCE00E49AF514AA13EAD39400400D12108FACD4
:090FDE0014AD151212081A80ED81
:010FE70022E7
:040FE8008A188B19BF
:100FEC001212E4AA1AEAD3940040297F101210912D
:100FFC00AC18AD19CFCDCFCECCCE1205F3EF540F2C
:10100C00FEC3940AEE5004243080022437FF1212DF
:04101C001C1A80D149
:0110200022AD
:041021008A1D8B1E7B
:101025001212E4AA1FEAD394004028EA24FFFDE443
:1010350034FFFC7F027E0012109BAC1DAD1ECFCD90
:10104500CFCECCCE1205F3EF54012430FF12121C83
:031055001A80D22C
:011058002275
:10127E0075985043878053890F438920758DFD756E
:0B128E008BFDC2ABD28ED2ACD2AF22DF
:09138A00D2A3D2A2C2A3C2A22286
:07139300C2A3D2A2D2A322E3
:02114C00AD07ED
:10114E00E4FB74807E00A803088006CEA2E713CECF
:10115E0013D8F8FFEDF582EF558224FF92A3D2A2A9
:06116E00C2A20BBB08DC6D
:011174002258
:10122600E4FFD2A3FED2A230A30D7480A8060880E4
:0D12360002C313D8FC4207C2A20EBE08E896
:011243002288
:0A138000EF24FF92A3D2A2C2A22222
:0B136000D2A3D2A2A2A3E433FFC2A2DA
:01136B00225F
:1011E6008F468D4712138A7FA012114C121360AFDF
:1011F6004612114C121360AF4712114C12136002C3
:02120600139340
:0210C2008F4657
:1010C40012138A7FA012114C121360AF4612114CF6
:1010D40012136012138A7FA112114C1213601212A0
:0D10E400268F477F01121380121393AF4730
:0110F10022DC
:100026000201BCEC5D046005E8590470030201B2EC
:1000360012017D580460F6EC4860F2EC7004FDFE97
:10004600FF22C860DB2481C85009C39860025006AD
:100056000201B99850CAF582E9294B4A7005AB826C
:100066000201A875F0007C1A7880C3EF9BEE9AED2A
:1000760099400DC3EF9BFFEE9AFEED99FDE842F025
:10008600DC23ACF0D0E0FFD0E0FED0E0FDAB822078
:10009600E7101BEB60BAEC2CFCEF33FFEE33FEED02
:1000A60033FD020194E803F830E705C0F075F0006F
:1000B600EF2FFFEE33FEED33FD40B830E7C280AAE6
:1000C60074F8CC6480CCC86480C8F58204604FC3E1
:1000D600EB9FF5F0EA9E42F0E99D42F0E89C45F080
:1000E600603C501DE5825FFFE582D313CB5BCBF40A
:1000F6002B5582FB50280ABA002409B90020088033
:100106001DE5825BFBE582D313CF5FCFF4C3132FCC
:100116005582FF50090EBE00050DBD00010CC3EB54
:100126009FF5F0EA9E42F0E99D42F0E89C45F060BA
:0901360007CC4820E701B3EC22DC
:10013F0075F020800E75F010800575F0087D007E3B
:10014F00007F003392D530D503120648EC334010B0
:10015F00EF33FFEE33FEED33FDEC33FCD5F0ED2244
:0E016F00E5F0247EA2D513CC92E7CDCEFF2280
:10068C00E5562442F8E6055622783F3010027842AF
:10069C00E475F0011206560205672009EB7F2ED295
:1006AC00098018EF540F2490D43440D4FF300D0B34
:1006BC00EF24BFB41A0050032461FFE55760021504
:1006CC0057055AE55A7002055930100D783FE475FC
:1006DC00F001120656EF0205AD02119C7403D21004
:1006EC008003E4C210F5568B3F8A408941E4F557EC
:1006FC00F559F55AE55760077F201206C780F57546
:10070C0058FFC20AC209C20BC20CC20EC20FC211E0
:10071C00120695FF700D3010057F001206D8AF5AE7
:10072C00AE5922B4255FC2D5C20D120695FF24D056
:10073C00B40A00501A75F00A785730D50508B6FF80
:10074C000106C6A426F620D5047002D20C80D9244A
:10075C00CFB41A00EF5004C2E5D20D0209C5D20A7B
:10076C0080C6D20980C0D20B80BCD2D580BAD20E42
:10077C0080B47F201206C7200B077401B5570040C8
:10078C00F112068CFF1206C7020700D211D20F809D
:10079C009512068CFB12068CFA12068CF94A4B70D9
:1007AC000679BC7A0A7BFF200B2EE557602A7E0067
:1007BC008E8275830012058060060EEE655870F00F
:1007CC00C2D5EBC0E0EAC0E0E9C0E0EE120A25D0E9
:1007DC00E0F9D0E0FAD0E0FB120567FF60AAEBC0AD
:1007EC00E0EAC0E0E9C0E01206C7D0E02401F9D08D
:1007FC00E03400FAD0E0FBE5580460DCD558D98031
:10080C0087D20B80A2120A0860F7E5587001041217
:10081C0001C7A958600DE558600914F558120AAFC4
:10082C00EF60F3EA30E702F404C3995077EAF42559
:10083C00580430E701E404F558800D120A0860C131
:10084C00EA055825581201C7EA7855F630E701E455
:10085C00255804D55804200E0114120A25E4C0E0D2
:10086C00120AAF7855E6601320E70714F61206AFAC
:10087C00802204F6D0E014C0E07F001206AFE558E9
:10088C0060071206A61558800B300E031206A6D070
:10089C00E0020700D0E00480C5120A0860A0E55809
:1008AC00041201C77855EAF6E558200E02600104DF
:0508BC002404120A25CE
:1008C10074FF04C0E0120AAF1206AFE558200E0211
:1008D10060031206A6D0E0B558E87F451206B97844
:1008E10055E67F2B30E7047F2DF404C0E01206C7E4
:1008F100D0E075F00A84C0F01206B0D0E01206B064
:10090100020700791080027908C20FC2118008D253
:10091100D5790A8004790AC2D5E558047002F558E0
:10092100E4FAFDFEFF12068CFC7B08200A13120676
:100931008CFD7B1030090A12068CFE12068CFF7B9F
:1009410020EC3382D592D55013C3E43009069FFFC2
:10095100E49EFEE4200A039DFDE49CFCE4CBF8C286
:100961000AEC700CCFCECDCCE824F8F870F38017E8
:10097100C3EF33FFEE33FEED33FDEC33FCEB33FB22
:10098100994002FB0FD8E9EB300A05F8D0E0C448E2
:10099100B20AC0E00AEC4D4E4F78207B0070C2EAEB
:1009A100B5580040BCC0E0120A27D0F0D0E0200AC0
:1009B10004C4C0E0C4B20AC0F01206B0D0F0D5F051
:1009C100EB020700120666079D53090458076E4C97
:1009D100076A4209084F091044091049078343096E
:1009E100165508474608A5450811470ADC50077205
:1009F1002D07762E07992B077A230797200AC52AF8
:100A010007324800000791E558B4FF0375580612F4
:100A1100068CFC12068CFD12068CFE12068CFF78E9
:100A21004E0201F6790AA2D5200C14300E09B91034
:100A3100020404B9080104A2D5200F0250010420C8
:100A41000B68920BB557005034C0E07F20300C1971
:100A51007F30A20B720F720E500F120A7EC20BC2B0
:100A61000FC20EC2117F30800F300E03E9C0E012B9
:100A710006C7300E03D0E0F9D0E0B557CC300E17E1
:100A81007F30B9100C1206C77F58300D077F788070
:100A910003B908031206C7300B057F2D0206C77F75
:100AA100202011F87F2B200FF322920B80CF7F00A3
:100AB100B407005005244EF8E6FF22286E756C6CD1
:100AC1002900D20A12068C300AF8C20A785730D5AA
:100AD1000108F60207322D5043495812068C2403AF
:100AE100B405004001E4900AD7931206B8743A1293
:0A0AF10006B8D20C75570402090480
:10017D00E9D2E7C933E833F892D5EDD2E7CD33ECC8
:07018D0033FC5002B2D52241
:10019400EC30E7100FBF000C0EBE00080DBD0004CC
:1001A4000BEB6014A2D5EB13FCED92E7FD2274FF78
:1001B400FCFDFEFF22E480F8A2D574FF13FC7D80D1
:0301C400E480EFE5
:1001C700F920E72824F950037907E4F42402FB18FF
:1001D700DBFDE624FB5014E9600DE4F618E604F6AF
:0F01E700B40A08E4F6D9F57401F60A22C2D5224B
:1001F600ED33EC3392D5FA602AB4FF33EDC2E77BD8
:10020600FF60067A02791BE4227A02792420D5045B
:100216007A02791F224E614E002B494E46002D4927
:100226004E4600E47A08F608DAFC7B00740722E8FA
:10023600C0E0ECC0E0EDC0E0EEC0E0EFC0E0EA7583
:10024600F010A4CAABF075F04DA42BFBE435F0FC1E
:10025600EA2410FAEB34C5FBEC34D9FCEDC2E7FF17
:1002660075F056A4F42411C5F0F434C58FF0A42A11
:10027600E5F03BE43CF620E714120527D0E0FFD07A
:10028600E0FED0E0FDD0E0FC1200298014F4041258
:100296000527D0E0FFD0E0FED0E0FDD0E0FC120361
:1002A600F1D0E0F8E6FAEDD2E7CD33EC332482FB69
:1002B600E4C3CF33CFCE33CECD33CD33DBF37B07A1
:1002C60075F00A846004F6081B0AE5F0F6088FF05C
:1002D600740AA4FFACF08EF0740AA42CFEACF050A5
:1002E600010C8DF0740AA42CFDE435F0F608DBDE73
:0302F60074072268
:1002F9000201B2E86480F8E933E83360110460F080
:10030900ED33EC337009E8FCE9FDEAFEEBFF22046A
:1003190060DED3EB9FEA9EE99DE8C2E78CF0C2F765
:1003290095F0400CE8CCF8E9CDF9EACEFAEBCFFB31
:1003390012017D85D0F05804700320D5B3E804700C
:10034900075002B2D50201BC92D5EC0460F7E4CCA7
:10035900C0E0C398F8603B94186008400DD0E0FBFA
:10036900020194E4FBFAC9FC8028E830E406E4C9F8
:10037900FBE4CAFCE830E305E4C9CACBFCE854074E
:100389006010F8C3E913F9EA13FAEB13FBEC13FC59
:10039900D8F130F52FC3E49CFCEF9BFFEE9AFEEDFC
:1003A90099FDD0E0FBEF4E4D4C701222DB030201A8
:1003B900B9EC2CFCEF33FFEE33FEED33FDED30E706
:1003C900EB020194EF2BFFEE3AFEED39FDD0E0FB95
:1003D90050130BBB00030201BCED13FDEE13FEEF3E
:0803E90013FFEC13FC02019468
:1003F100EC4D6011E8497017ED33EC3304600DE406
:10040100FCFFFEFD22E933E8330470F80201B21269
:10041100017D58046009E4CC24815006285009026A
:1004210001BC2840030201B9C0E0EB4A7044B98025
:1004310006D0E0FB0201A8EF4E701CBD8008EBFF67
:10044100EAFEE9FD80EBE98DF0A4FEE5F00204DAB5
:10045100E9CDF9EAFEEBFFEF89F0A4FCE5F0CE89E6
:10046100F0A42EFFE435F0CD89F0A42DFEE435F0A3
:100471008067EF4E7005BD80D780C3EF8BF0A4ACD1
:10048100F0EE8BF0A42CFCE435F0F8EF8AF0A42C0C
:10049100E5F038FCE433CB8DF0A42CFCE5F03BF81F
:1004A100EE8AF0A42CFCE5F038F8E433CF89F0A40F
:1004B1002CFCE5F038CF3400CE89F0A42FFFE5F015
:1004C1003EFEE433C98DF0A42EFEE5F039CD8AF06D
:1004D100A42FFFE5F03EFEE43DFD33D0E0FB5007E5
:1004E1000BBB000F0201BCEC2CFCEF33FFEE33FE23
:0604F100ED33FD02019451
:1004F7003F8000004120000042C80000447A00000D
:10050700461C400047C35000497424004B1896808E
:100517004CBEBC205A0E1BCA6753C21C749DC5AE85
:10052700FB60065407601C2323120555EB54386003
:10053700091205411205501203F1ECF8EDF9EEFA34
:10054700EFCB22EB12055080F1543803241C9004A2
:10055700F7FE93FC0EEE93FD0EEE930ECE93FF2265
:03000000020DEA04
:0C0DEA00787FE4F6D8FD758175020E31AB
:10056700BB010689828A83E0225002E722BBFE0292
:09057700E32289828A83E49322C5
:10058000BB010CE58229F582E5833AF583E0225030
:1005900006E92582F8E622BBFE06E92582F8E2227A
:0D05A000E58229F582E5833AF583E4932294
:1005AD00BB010689828A83F0225002F722BBFE012D
:0205BD00F32227
:1005BF00F8BB010DE58229F582E5833AF583E8F072
:1005CF00225006E92582C8F622BBFE05E92582C81E
:0205DF00F22206
:1005E100EF8DF0A4A8F0CF8CF0A428CE8DF0A42E2E
:0205F100FE22E8
:1005F300BC000BBE0029EF8DF084FFADF022E4CCEC
:10060300F875F008EF2FFFEE33FEEC33FCEE9DECB4
:10061300984005FCEE9DFE0FD5F0E9E4CEFD22EDFA
:10062300F8F5F0EE8420D21CFEADF075F008EF2F44
:10063300FFED33FD4007985006D5F0F222C398FD35
:050643000FD5F0EA22D2
:0E064800C3E49FFFE49EFEE49DFDE49CFC22C3
:10065600FAE6FB0808E6F925F0F618E6CA3AF622A5
:10066600D083D082F8E4937012740193700DA3A323
:1006760093F8740193F5828883E473740293686037
:06068600EFA3A3A380DF37
:10119C00EFB40A07740D1211A7740A309811A899AC
:1011AC00B8130CC2983098FDA899C298B811F630B3
:0711BC0099FDC299F599228B
:100DF600021175E493A3F8E493A34003F68001F28D
:100E060008DFF48029E493A3F85407240CC8C333FD
:100E1600C4540F4420C8834004F456800146F6DFCC
:100E2600E4800B0102040810204080900003E47E59
:100E3600019360BCA3FF543F30E509541FFEE493C1
:100E4600A360010ECF54C025E060A840B8E493A388
:100E5600FAE493A3F8E493A3C8C582C8CAC583CAB3
:100E6600F0A3C8C582C8CAC583CADFE9DEE780BE6B
:0100200000DF
:00000001FF
